:020000040800F2
:1000000000200020C50800080108000809080008B1
:1000100000000000000000000000000000000000E0
:1000200000000000000000000000000011080008AF
:1000300000000000000000001B0800082508000860
:10004000150900080000000015090008150900083E
:100050001509000815090008150900081509000808
:10006000000000001509000815090008150900081E
:10007000150900081509000815090008000000000E
:1000800015090008150900080000000015090008FE
:1000900015090008150900081509000815090008C8
:1000A0001509000815090008150900083508000899
:1000B000150900080000000000000000000000001A
:1000C00010B5064C2378002B07D1054B002B02D02E
:1000D000044800E000BF0123237010BD4001002050
:1000E000000000009C420008044B10B5002B03D018
:1000F0000349044800E000BF10BDC04600000000F6
:10010000440100209C4200080023C25C0133002A05
:10011000FBD1581E7047000003B4714649084000E7
:100120004900095E49008E4403BC70470022430821
:100130008B4274D303098B425FD3030A8B4244D3AF
:10014000030B8B4228D3030C8B420DD3FF220902F1
:1001500012BA030C8B4202D31212090265D0030BB0
:100160008B4219D300E0090AC30B8B4201D3CB03A6
:10017000C01A5241830B8B4201D38B03C01A5241E8
:10018000430B8B4201D34B03C01A5241030B8B42EA
:1001900001D30B03C01A5241C30A8B4201D3CB02D5
:1001A000C01A5241830A8B4201D38B02C01A5241BA
:1001B000430A8B4201D34B02C01A5241030A8B42BD
:1001C00001D30B02C01A5241CDD2C3098B4201D3D5
:1001D000CB01C01A524183098B4201D38B01C01A53
:1001E000524143098B4201D34B01C01A52410309CA
:1001F0008B4201D30B01C01A5241C3088B4201D379
:10020000CB00C01A524183088B4201D38B00C01A25
:10021000524143088B4201D34B00C01A5241411A4C
:1002200000D20146524110467047FFE701B5002059
:1002300000F006F802BDC0460029F7D076E7704707
:100240007047C04680B500AF00F066FB00F0D8F8FC
:1002500000F0A8F900F076F900F034F90423FF3338
:100260001A005949594B180001F083FF584B0822D6
:100270001A70574A8C235B000321D150544B002243
:100280005A60534B00221A73514B00225A73514B40
:100290001B78DBB2012B31D14B4B5B78CC2B2DD1B2
:1002A0004C4B00221A704A4B0E2247499B180522DC
:1002B000180003F0ABFB464B180003F00DFA0300E7
:1002C0001A00454B1A70404BDA78434B1B789A4220
:1002D0000CD1FA239B0041493C48092201F0AAFEB7
:1002E0003F4B1B78180003F0D3F96BE0FA239B0017
:1002F0003C4936480A2201F09DFE63E0354B1B78ED
:10030000DBB2012BC3D1304B5B78DD2BBFD1314B3E
:1003100000221A70344B13222B499B188222520060
:10032000180003F073FB314A314B1100180003F041
:1003300061F92D4B180003F03DFA03001A002D4B14
:100340001A802C4B1B8818002B4B1B7804331E4A39
:10035000D35C1B02284A127805321B498A5C13437E
:1003600098420DD1254B1A78234B1B789A4207D11E
:10037000FA239B0019491548092201F05BFE21E090
:100380001C4B1B8818001C4B1B7804330E4AD35C93
:100390001B02194A127805320B498A5C13439842B2
:1003A00000D174E7154B1A78134B1B789A4200D88A
:1003B0006DE7FA239B000B4904480A2201F03AFE3C
:1003C00003F0EAF863E7C04648020020C0010020BD
:1003D000540300204C0300204E030020C0000020E6
:1003E0004D030020CC0000207004002000600008B5
:1003F00086040020500300208C0500208D0500207D
:1004000090B595B000AF20243B19180030231A0096
:10041000002103F0C7FA1023FB18180010231A005C
:10042000002103F0BFFA3B00180010231A0000213E
:1004300003F0B8FA21007B1802221A607B1801220F
:10044000DA607B1810221A617B1802221A627B186C
:1004500000225A627B18A02292039A627B18002223
:10046000DA627B18180000F0ADFF031E01D000F027
:10047000FBF810217B1807221A607B1802225A60B1
:100480007B1800229A607B180022DA607B18012119
:10049000180001F0B1FA031E01D000F0E5F83B00AE
:1004A00001221A603B0000229A603B00180001F014
:1004B000E7FB031E01D000F0D7F8C046BD4615B0DB
:1004C00090BD000080B500AF1C4B1D4A1A601B4B4D
:1004D000822252005A60194B802212029A60174BF6
:1004E000C0229200DA60154B00221A61134B0022E1
:1004F0005A61124B802292009A61104B1022DA61ED
:100500000E4B00221A620D4B00225A620B4B002246
:100510009A620A4B0722DA62084B00221A63074BE1
:1005200008225A63054B180001F078FC031E01D025
:1005300000F09AF8C046BD4680BDC0465C01002070
:100540000030014080B500AF144B154A1A60134BC0
:10055000E12252025A60114B00229A600F4B002296
:10056000DA600E4B00221A610C4B0C225A610B4BC5
:1005700000229A61094B0022DA61084B00221A62BC
:10058000064B00225A62054B180001F0FFFC031EC7
:1005900001D000F069F8C046BD4680BDC001002012
:1005A0000038014080B582B000AF094B5A69084B52
:1005B000802189020A435A61054B5A6980239B02B4
:1005C00013407B607B68C046BD4602B080BDC0461C
:1005D0000010024080B582B000AF78607B681B6875
:1005E0001B4A934227D11B4B5B78CC2B0BD1194B69
:1005F0001B78242B07D1184B01221A70154B9A78BF
:10060000164B1A7017E0134B5B78DD2B0BD1114B97
:100610001B78242B07D1104B01221A700D4B9A78AE
:100620000F4B1A7007E00423FF331A00094B002117
:10063000180003F0B7F90423FF331A000549094BEA
:10064000180001F096FDC046BD4602B080BDC04610
:1006500000380140480200204C0300204D030020D8
:100660008C050020C001002080B500AF72B6C046E6
:10067000C046FDE780B582B000AF0F4B9A690E4BC4
:1006800001210A439A610C4B9B69012213407B6054
:100690007B68094BDA69084B802149050A43DA6116
:1006A000054BDA6980235B0513403B603B68C0461D
:1006B000BD4602B080BDC0460010024090B58BB070
:1006C00000AF786014243B19180014231A0000218D
:1006D00003F068F97B681B681C4A934232D11C4BBB
:1006E0009A691B4B802149010A439A61184B9A6908
:1006F00080235B0113403B613B69154B5A69144BE6
:10070000802189020A435A61114B5A6980239B0256
:100710001340FB60FB6821007B18A0221A607B1845
:1007200002225A607B1800229A607B180322DA604A
:100730007B1800221A617A189023DB05110018003B
:1007400000F0D0FCC046BD460BB090BD003001406B
:100750000010024090B58BB000AF786014243B19B4
:10076000180014231A00002103F01CF97B681B6891
:10077000214A93423BD1214B9A69204B8021C901E8
:100780000A439A611D4B9A698023DB0113403B6148
:100790003B691A4B5A69194B802189020A435A61F5
:1007A000164B5A6980239B021340FB60FB683B1980
:1007B000C022D2001A6021007B1802225A607B18E6
:1007C00000229A607B180322DA607B1801221A61EA
:1007D0007A189023DB051100180000F083FC00223A
:1007E00000211B2000F0CCF91B2000F0DEF9C046F0
:1007F000BD460BB090BDC04600380140001002401D
:1008000080B500AFC046FDE780B500AFC046FDE74C
:1008100080B500AFC046BD4680BD80B500AFC046C4
:10082000BD4680BD80B500AF00F0BEF8C046BD46F5
:1008300080BD000080B500AF034B180001F0F0FC54
:10084000C046BD4680BDC046C001002080B586B010
:1008500000AF7860144A154BD31A7B617B693B610A
:10086000134B1B68002B02D1114B124A1A60104B1C
:100870001A687B68D3183A699A4207D203F09AF84B
:1008800003000C221A6001235B4209E0084B1B683D
:10089000FB60074B1A687B68D218054B1A60FB682F
:1008A0001800BD4606B080BD0020002000040000F6
:1008B000900500200807002080B500AFC046BD4667
:1008C00080BD00000D488546FFF7F6FF0C480D4936
:1008D0000D4A002302E0D458C4500433C4188C429B
:1008E000F9D30A4A0A4C002301E013600432A24201
:1008F000FBD303F065F8FFF7A5FCFEE7002000201E
:10090000C00000203C010020CC4300084001002032
:1009100004070020FEE7000080B500AF074B1A680F
:10092000064B10210A431A60032000F009F8FFF774
:10093000A1FE00231800BD4680BDC0460020024035
:1009400090B583B000AF7860144B1C68144B1B78D3
:100950001900FA239800FFF7E9FB030019002000B3
:10096000FFF7E4FB0300180000F02FF9031E01D08D
:1009700001230FE07B68032B0BD8796801235B42CE
:100980000022180000F0FCF8064B7A681A60002379
:1009900000E001231800BD4603B090BDD800002040
:1009A000E0000020DC00002080B500AF054B1B7884
:1009B0001A00054B1B68D218034B1A60C046BD468F
:1009C00080BDC046E00000209405002080B500AF47
:1009D000024B1B681800BD4680BDC0469405002030
:1009E00080B584B000AF7860FFF7F0FF0300BB6014
:1009F0007B68FB60FB68013305D00A4B1B781A004B
:100A0000FB689B18FB60C046FFF7E0FF0200BB6875
:100A1000D31AFA689A42F7D8C046C046BD4604B019
:100A200080BDC046E000002080B582B000AF02006B
:100A3000FB1D1A70FB1D1B787F2B09D8FB1D1B7833
:100A40001A001F231A40044B012191400A001A602A
:100A5000C046BD4602B080BD00E100E090B583B065
:100A600000AF02003960FB1D1A70FB1D1B787F2B45
:100A700028D82F4AFB1D1B785BB29B08C0339B0014
:100A80009B58FA1D1278110003220A40D200FF2160
:100A900091400A00D2431A4011003B689B01FF229B
:100AA0001A40FB1D1B78180003230340DB009A400B
:100AB0001F48FB1D1B785BB29B080A43C0339B0099
:100AC0001A5031E01B4AFB1D1B7819000F230B4005
:100AD000083B9B0806339B00D31804331B68FA1DA0
:100AE0001278110003220A40D200FF2191400A002F
:100AF000D2431A4011003B689B01FF221A40FB1DA4
:100B00001B78180003230340DB009A400948FB1DB3
:100B10001B781C000F232340083B9B080A43063325
:100B20009B00C31804331A60C046BD4603B090BD95
:100B300000E100E000ED00E080B582B000AF786039
:100B40007B685A1E80235B049A4201D3012310E084
:100B50000A4B7A68013A5A6001235B42032118006C
:100B6000FFF77CFF054B00229A60044B07221A60B6
:100B700000231800BD4602B080BDC04610E000E072
:100B800080B584B000AFB9607A600F217B18021C79
:100B90001A70BA687B181B785BB211001800FFF757
:100BA0005DFFC046BD4604B080BD80B582B000AFD9
:100BB0000200FB1D1A70FB1D1B785BB21800FFF7CB
:100BC00033FFC046BD4602B080BD80B582B000AFE5
:100BD00078607B681800FFF7AFFF03001800BD4680
:100BE00002B080BD80B582B000AF78607B68212202
:100BF0009B5CDBB2022B08D07B6804229A637B6883
:100C0000202200219954012320E07B681B681A6888
:100C10007B681B680E218A431A607B681B681A6810
:100C20007B681B6801218A431A607B681A6C7B68A9
:100C3000DB6B012191400A005A607B68212201216F
:100C400099547B6820220021995400231800BD4646
:100C500002B080BD80B584B000AF78600F217B18F2
:100C600000221A707B6821229B5CDBB2022B06D02B
:100C70007B6804229A637B1801221A7028E07B6843
:100C80001B681A687B681B680E218A431A607B68A0
:100C90001B681A687B681B6801218A431A607B689D
:100CA0001A6C7B68DB6B012191400A005A607B68FB
:100CB0002122012199547B682022002199547B68CC
:100CC0005B6B002B04D07B685B6B7A6810009847E5
:100CD0000F23FB181B781800BD4604B080BD000030
:100CE000F0B587B000AFF860B9603A607B60172359
:100CF000FB1801221A701623FB1800221A70152304
:100D0000FB1800221A703E4B1B7E012B01D10223DF
:100D100072E03B4B01221A761723FE18394B18005C
:100D200000F0C4F8030033701723FB181B78002B66
:100D30005CD1FB68012B04D11523FB1801221A702A
:100D40000BE0FB68022B04D11523FB1802221A705A
:100D500003E01523FB1804221A701623FB18002247
:100D60001A7039E016217B181B785A00BB68D0181E
:100D70007B181B781B011A00203A002A03DB7968D4
:100D8000D1400C0008E02022D21A796891400A0074
:100D90003968D9400C0014437A68DA401500A3B2D0
:100DA000190000F067F81723FE18164B180000F022
:100DB0007DF803003370144B1A69134B01218A43E9
:100DC0001A611723FB181B78002B0ED116217B18F4
:100DD0001A787B1801321A701623FA181523FB189B
:100DE00012781B789A42BDD300E0C046044B002223
:100DF0001A761723FB181B781800BD4607B0F0BD04
:100E00009805002050C300000020024080B582B049
:100E100000AFFB1D00221A700C4B1B69802213408F
:100E20000DD00A4B0A4A5A60084B0A4A5A60074BCF
:100E30001B698022134002D0FB1D01221A70FB1D8A
:100E40001B781800BD4602B080BDC046002002409D
:100E500023016745AB89EFCD80B500AF044B1A691C
:100E6000034B80210A431A6100231800BD4680BD50
:100E70000020024080B582B000AF78600A00BB1C41
:100E80001A80084B0022DA61074B1A69064B0121D0
:100E90000A431A617B68BA1C12881A80C046BD4694
:100EA00002B080BD980500200020024080B584B0CB
:100EB00000AF7860FFF78AFD0300FB600FE07B68FE
:100EC00001330CD07B68002B07D0FFF77FFD0200B9
:100ED000FB68D31A7A689A4201D203231FE0124BAF
:100EE000DB6801221340012BE9D00F4BDB68202285
:100EF0001340202B02D10C4B2022DA600A4BDB6816
:100F000010221340102B05D0074BDB68042213403E
:100F1000042B03D100F00AF8012300E0002318009D
:100F2000BD4604B080BDC0460020024080B582B0FE
:100F300000AF00237B60134BDB6810221340102BA3
:100F400009D1114BDB6902221A430F4BDA617B682E
:100F5000102213437B600B4BDB6804221340042BED
:100F600009D1094BDB6901221A43074BDA617B681F
:100F7000042213437B60034B7A68DA60C046BD46A7
:100F800002B080BD0020024098050020B0B584B0BA
:100F900000AF786039600F23FB1801221A7000231C
:100FA000BB60324B1B7E012B01D102235AE02F4B39
:100FB00001221A767B681B68012B16D12C4B180076
:100FC000FFF774FF031E47D100F056F80F23FC18FB
:100FD000274B1800FFF76AFF03002370254B1A699F
:100FE000244B04218A431A6136E0214B1800FFF795
:100FF0005DFF031E30D13B68012252421A607B68BC
:101000005B68BB601FE0BB68180000F04DF80F255F
:101010007C19174B1800FFF749FF03002370154B8D
:101020001A69144B02218A431A617B191B78002B21
:1010300003D03B68BA681A600EE0BB688022D20019
:1010400094466344BB607B689B689A027B685B68DC
:10105000D318BA689A42D6D3044B00221A760F23CB
:10106000FB181B781800BD4604B0B0BD98050020E1
:1010700050C300000020024080B500AF084B0022A2
:10108000DA61084B1A69074B04210A431A61054BC0
:101090001A69044B40210A431A61C046BD4680BD0F
:1010A000980500200020024080B582B000AF786033
:1010B0000A4B0022DA610A4B1A69094B02210A43E2
:1010C0001A61074B7A685A61054B1A69044B402133
:1010D0000A431A61C046BD4602B080BD9805002093
:1010E0000020024080B586B000AF786039600023F0
:1010F0007B614FE13B681B6801217A6991400A00DE
:101100001340FB60FB68002B00D140E13B685B684B
:1011100003221340012B05D03B685B680322134078
:10112000022B30D17B689B683B617B695B000322AB
:101130009A401300DA433B6913403B613B68DA682D
:101140007B695B009A4013003A6913433B617B68FB
:101150003A699A607B685B683B6101227B699A40CF
:101160001300DA433B6913403B613B685B681B0932
:1011700001221A407B699A4013003A6913433B618C
:101180007B683A695A603B685B6803221340032B13
:1011900017D07B68DB683B617B695B0003229A4068
:1011A0001300DA433B6913403B613B689A687B69F3
:1011B0005B009A4013003A6913433B617B683A69CC
:1011C000DA603B685B6803221340022B23D17B6902
:1011D000DA087B6808329200D3583B617B690722AA
:1011E00013409B000F229A401300DA433B691340DF
:1011F0003B613B681A697B6907210B409B009A4061
:1012000013003A6913433B617B69DA087B68083253
:1012100092003969D1507B681B683B617B695B0038
:1012200003229A401300DA433B6913403B613B6859
:101230005B6803221A407B695B009A4013003A699D
:1012400013433B617B683A691A603B685A68C02364
:101250009B02134000D19AE0544B9A69534B0121F1
:101260000A439A61514B9B6901221340BB60BB68E2
:101270004F4A7B699B0802339B009B583B617B690B
:10128000032213409B000F229A401300DA433B696C
:1012900013403B617A689023DB059A4213D07B6848
:1012A000444A93420DD07B68434A934207D07B68FF
:1012B000424A934201D1032306E0052304E00223BE
:1012C00002E0012300E000237A6903210A40920032
:1012D00093403A6913433B6135497B699B0802336C
:1012E0009B003A695A50364B9B683B61FB68DA4376
:1012F0003B6913403B613B685A6880235B031340A2
:1013000003D03A69FB6813433B612D4B3A699A60FD
:101310002B4BDB683B61FB68DA433B6913403B6165
:101320003B685A6880239B03134003D03A69FB68EB
:1013300013433B61224B3A69DA60214B5B683B61A6
:10134000FB68DA433B6913403B613B685A68802382
:101350009B02134003D03A69FB6813433B61184B6F
:101360003A695A60164B1B683B61FB68DA433B697C
:1013700013403B613B685A6880235B02134003D0F3
:101380003A69FB6813433B610D4B3A691A607B690C
:1013900001337B613B681A687B69DA40131E00D019
:1013A000A8E6C046C046BD4606B080BD001002405B
:1013B000000001400004004800080048000C0048FC
:1013C0000004014080B588B000AF78607B68002BD6
:1013D00001D1012301E37B681B680122134000D186
:1013E0008DE0C34B5B680C221340042B0ED0C04B26
:1013F0005B680C221340082B16D1BD4B5A68802322
:101400005B021A4080235B029A420DD1B84B1A68E6
:1014100080239B02134000D170E07B685B68002B47
:1014200000D06BE00123D8E27B685B68012B07D119
:10143000AF4B1A68AE4B802149020A431A602FE075
:101440007B685B68002B0CD1A94B1A68A84BA94993
:101450000A401A60A64B1A68A54BA7490A401A60B1
:101460001EE07B685B68052B0ED1A14B1A68A04B70
:101470008021C9020A431A609D4B1A689C4B802147
:1014800049020A431A600BE0994B1A68984B994934
:101490000A401A60964B1A68954B97490A401A60A1
:1014A0007B685B68002B14D0FFF790FA0300BB61E8
:1014B00008E0FFF78BFA0200BB69D31A642B01D94D
:1014C00003238AE28A4B1A6880239B021340F0D0E0
:1014D00015E0FFF77BFA0300BB6108E0FFF776FA3F
:1014E0000200BB69D31A642B01D9032375E2804B38
:1014F0001A6880239B021340F0D100E0C0467B684D
:101500001B680222134000D169E0794B5B680C2212
:1015100013400BD0764B5B680C221340082B1CD178
:10152000734B5A6880235B02134016D1704B1B68C3
:101530000222134005D07B68DB68012B01D0012318
:101540004BE26B4B1B68F822934319007B681B69C5
:10155000DA00674B0A431A6041E07B68DB68002BC6
:1015600024D0634B1A68624B01210A431A60FFF7CB
:101570002DFA0300BB6108E0FFF728FA0200BB69FF
:10158000D31A022B01D9032327E2594B1B680222ED
:101590001340F1D0564B1B68F822934319007B6827
:1015A0001B69DA00524B0A431A6018E0504B1A6864
:1015B0004F4B01218A431A60FFF708FA0300BB6111
:1015C00008E0FFF703FA0200BB69D31A022B01D926
:1015D000032302E2464B1B6802221340F1D17B68D1
:1015E0001B680822134036D07B68DB69002B19D0BA
:1015F0003F4B5A6A3E4B01210A435A62FFF7E6F914
:101600000300BB6108E0FFF7E1F90200BB69D31AF0
:10161000022B01D90323E0E1354B5B6A0222134020
:10162000F1D018E0324B5A6A314B01218A435A6299
:10163000FFF7CCF90300BB6108E0FFF7C7F9020030
:10164000BB69D31A022B01D90323C6E1284B5B6A7D
:1016500002221340F1D17B681B680422134000D1A1
:10166000B4E01F203B1800221A70214BDA69802356
:101670005B05134010D11E4BDA691D4B80214905D3
:101680000A43DA611A4BDA6980235B051340FB6079
:10169000FB683B1801221A70184B1A6880235B0004
:1016A00013401AD1154B1A68144B802149000A4384
:1016B0001A60FFF78BF90300BB6108E0FFF786F9BA
:1016C0000200BB69D31A642B01D9032385E10B4BBC
:1016D0001A6880235B001340F0D07B689B68012B65
:1016E0000ED1034B1A6A024B01210A431A6235E0FC
:1016F00000100240FFFFFEFFFFFFFBFF00700040F5
:101700007B689B68002B0CD1B64B1A6AB54B012144
:101710008A431A62B34B1A6AB24B04218A431A6293
:101720001CE07B689B68052B0CD1AE4B1A6AAD4B55
:1017300004210A431A62AB4B1A6AAA4B01210A43DD
:101740001A620BE0A74B1A6AA64B01218A431A6260
:10175000A44B1A6AA34B04218A431A627B689B68D4
:10176000002B14D0FFF732F90300BB6109E0FFF74B
:101770002DF90200BB69D31A9B4A934201D9032376
:101780002BE1984B1B6A02221340F0D013E0FFF7C5
:101790001DF90300BB6109E0FFF718F90200BB69FE
:1017A000D31A914A934201D9032316E18D4B1B6A48
:1017B00002221340F0D11F23FB181B78012B05D107
:1017C000884BDA69874B89490A40DA617B681B6874
:1017D0001022134063D07B685B69012B2AD1814BB7
:1017E0005A6B804B04210A435A637E4B5A6B7D4BE4
:1017F00001210A435A63FFF7E9F80300BB6108E0DF
:10180000FFF7E4F80200BB69D31A022B01D90323C6
:10181000E3E0744B5B6B02221340F1D0714B5B6BC6
:10182000F822934319007B689B69DA006D4B0A43E9
:101830005A6334E07B685B69053311D1694B5A6B9D
:10184000684B04218A435A63664B5B6BF8229343CF
:1018500019007B689B69DA00624B0A435A631EE0F9
:10186000604B5A6B5F4B04210A435A635D4B5A6BC2
:101870005C4B01218A435A63FFF7A8F80300BB6160
:1018800008E0FFF7A3F80200BB69D31A022B01D9C5
:101890000323A2E0534B5B6B02221340F1D17B6820
:1018A0001B6A002B00D197E04E4B5B680C22134063
:1018B000082B00D16BE07B681B6A022B4CD1494B93
:1018C0001A68484B4A490A401A60FFF77FF803003C
:1018D000BB6108E0FFF77AF80200BB69D31A022B5C
:1018E00001D9032379E03F4B1A6880239B041340FE
:1018F000F0D13C4BDB6A0F22934319007B68DA6A14
:10190000384B0A43DA62374B5B683A4A1340190096
:101910007B689A6A7B685B6A1A43324B0A435A6057
:10192000304B1A682F4B802149040A431A60FFF795
:101930004DF80300BB6108E0FFF748F80200BB69FF
:10194000D31A022B01D9032347E0264B1A688023C0
:101950009B041340F0D03FE0224B1A68214B2449EE
:101960000A401A60FFF732F80300BB6108E0FFF796
:101970002DF80200BB69D31A022B01D903232CE0F6
:10198000184B1A6880239B041340F0D124E07B6835
:101990001B6A012B01D101231FE0124B5B687B61A5
:1019A000104BDB6A3B617A6980235B021A407B68DB
:1019B0005B6A9A420ED13B690F221A407B68DB6A50
:1019C0009A4207D17A69F0239B031A407B689B6A8D
:1019D0009A4201D0012300E000231800BD4608B060
:1019E00080BDC0460010024088130000FFFFFFEFDB
:1019F000FFFFFFFEFFFFC2FF80B584B000AF78603D
:101A000039607B68002B01D10123B3E05B4B1B687D
:101A1000012213403A689A4211D9584B1B6801229F
:101A200093431900554B3A680A431A60534B1B689D
:101A3000012213403A689A4201D001239AE07B6860
:101A40001B680222134015D07B681B6804221340D8
:101A500006D04B4B5A684A4BE021C9000A435A60F2
:101A6000474B5B68F022934319007B689A68444BAC
:101A70000A435A607B681B680122134040D07B6890
:101A80005B68012B07D13E4B1A6880239B021340F1
:101A900014D101236EE07B685B68022B07D1384BC1
:101AA0001A6880239B04134008D1012362E0344B61
:101AB0001B680222134001D101235BE0304B5B68BD
:101AC0000322934319007B685A682D4B0A435A60DE
:101AD000FEF77CFF0300FB6009E0FEF777FF0200E2
:101AE000FB68D31A274A934201D9032342E0244BCF
:101AF0005B680C221A407B685B689B009A42ECD1C1
:101B00001E4B1B68012213403A689A4211D21B4BAC
:101B10001B68012293431900184B3A680A431A6064
:101B2000164B1B68012213403A689A4201D00123E8
:101B300020E07B681B680422134009D0104B5B68CF
:101B4000114A134019007B68DA680D4B0A435A604A
:101B500000F020F801000A4B5B681B090F221340BC
:101B60000A4AD35C0A00DA40094B1A600320FEF7E8
:101B7000E7FE00231800BD4604B080BD00200240EF
:101B80000010024088130000FFF8FFFF58430008D0
:101B9000D800002080B586B000AF0023FB60002392
:101BA000BB6000237B6100237B6000233B61204BF3
:101BB0005B68FB60FB680C221340042B02D0082BEF
:101BC00003D02CE01B4B3B612CE0FB689B0C0F22ED
:101BD0001340194AD35C7B60154BDB6A0F2213401C
:101BE000164AD35CBB60FA6880235B02134009D0BD
:101BF000B9681048FEF79AFA03001A007B6853434D
:101C00007B6109E079680A005201521A93019B1A1C
:101C1000DB005B181B027B617B693B6102E0054BCB
:101C20003B61C0463B691800BD4606B080BDC0465A
:101C30000010024000127A00704300088043000840
:101C400080B500AF024B1B681800BD4680BDC04682
:101C5000D800002080B500AFFFF7F2FF0100064B6F
:101C60005B681B0A07221340044AD35CD9400B006F
:101C70001800BD4680BDC046001002406843000801
:101C800080B586B000AF786000233B610023FB6025
:101C90007B681A6880235B02134000D18EE0172016
:101CA0003B1800221A70574BDA6980235B051340FA
:101CB00010D1544BDA69534B802149050A43DA614C
:101CC000504BDA6980235B051340BB60BB683B184F
:101CD00001221A704C4B1A6880235B0013401AD102
:101CE000494B1A68484B802149000A431A60FEF7A5
:101CF0006DFE03003B6108E0FEF768FE02003B69F1
:101D0000D31A642B01D9032377E03F4B1A68802351
:101D10005B001340F0D03B4B1A6AC0239B0013407A
:101D2000FB60FB68002B34D07B685A68C0239B00A3
:101D30001340FA689A422CD0324B1B6A334A134044
:101D4000FB60304B1A6A2F4B802149020A431A620A
:101D50002C4B1A6A2B4B2E490A401A62294BFA68FF
:101D60001A62FB680122134013D0FEF72FFE030016
:101D70003B6109E0FEF72AFE02003B69D31A254ABF
:101D8000934201D9032338E01E4B1B6A0222134001
:101D9000F0D01C4B1B6A1D4A134019007B685A681F
:101DA000184B0A431A621723FB181B78012B05D125
:101DB000144BDA69134B18490A40DA617B681B68D7
:101DC0000122134009D00F4B1B6B032293431900D0
:101DD0007B689A680B4B0A431A637B681B68202256
:101DE000134009D0074B1B6B1022934319007B68EB
:101DF000DA68044B0A431A6300231800BD4606B094
:101E000080BDC0460010024000700040FFFCFFFF94
:101E1000FFFFFEFF88130000FFFFFFEF80B584B0D7
:101E200000AF78607B68002B01D10123A8E07B68BC
:101E30005B6A002B09D17B685A6882235B009A4257
:101E400009D07B680022DA6105E07B6800221A6114
:101E50007B6800225A617B6800229A627B685D225F
:101E60009B5CDBB2002B07D17B685C22002199547C
:101E70007B681800FEF722FC7B685D2202219954E2
:101E80007B681B681A687B681B6840218A431A605C
:101E90007B68DA68E023DB009A4202D90023FB600A
:101EA00002E080235B01FB607B68DA68F0231B01A2
:101EB0009A4208D07B68DA68E023DB009A4202D0BD
:101EC0007B6800229A627B685A6882235B001A4012
:101ED0007B68996884231B020B401A437B681B694B
:101EE00002210B401A437B685B6901210B401A43B6
:101EF0007B68996980239B000B401A437B68DB69F0
:101F000038210B401A437B681B6A80210B401A431F
:101F100011007B689A6A80239B011A407B681B68CA
:101F20000A431A607B689B691B0C04221A407B6879
:101F30005B6A10210B401A437B685B6B08210B40E6
:101F40001A437B68D968F0231B010B401A43110028
:101F5000FA6880235B011A407B681B680A435A6059
:101F60007B681B68DA697B681B6807490A40DA618D
:101F70007B6800221A667B685D2201219954002348
:101F80001800BD4604B080BDFFF7FFFF80B582B0EA
:101F900000AF78607B68002B01D1012344E07B68AF
:101FA000DB6F002B07D17B687822002199547B6876
:101FB0001800FEF7CFFB7B682422DA677B681B687A
:101FC0001A687B681B6801218A431A607B685B6A18
:101FD000002B03D07B68180000F046FD7B681800DA
:101FE00000F002FC0300012B01D101231CE07B68FF
:101FF0001B685A687B681B680D490A405A607B68F9
:102000001B689A687B681B6808218A439A607B6812
:102010001B681A687B681B6801210A431A607B6889
:10202000180000F0D5FD03001800BD4602B080BDC9
:10203000FFF7FFFF80B58AB002AFF860B9603B6080
:10204000BB1D1A80FB68DB6F202B00D08CE0BB68C7
:10205000002B03D0BB1D1B88002B01D1012384E082
:10206000FB689A6880235B019A4209D1FB681B696F
:10207000002B05D1BB680122134001D0012374E07D
:10208000FB68842200219950FB682122DA67FEF761
:102090009DFC03007B61FB68BA1D502112885A52D7
:1020A000FB68BA1D522112885A52FB689A68802335
:1020B0005B019A4208D1FB681B69002B04D1002305
:1020C000FB61BB68BB6103E0BB68FB610023BB61D4
:1020D0002FE07A69F8683B680093130000228021A2
:1020E00000F01EFE031E04D0FB682022DA670323E3
:1020F0003BE0FB69002B0BD1BB691A88FB681B68AE
:10210000D205D20D92B21A85BB690233BB6107E0DA
:10211000FB691A78FB681B681A85FB690133FB6150
:10212000FB6852229B5A9BB2013B99B2FB68522238
:102130009952FB6852229B5A9BB2002BC9D17A69F3
:10214000F8683B68009313000022402100F0E8FD8E
:10215000031E04D0FB682022DA67032305E0FB6836
:102160002022DA67002300E002231800BD4608B0F1
:1021700080BD80B588B000AFF860B960BB1D1A8023
:10218000FB6880229B58202B45D1BB68002B03D0D5
:10219000BB1D1B88002B01D101233DE0FB689A6821
:1021A00080235B019A4209D1FB681B69002B05D192
:1021B000BB680122134001D001232DE0FB680022FF
:1021C0001A66FB681B685A6880231B04134019D0E9
:1021D000EFF310833B613B69FB6101237B617B690A
:1021E00083F31088C046FB681B681A68FB681B688D
:1021F0008021C9040A431A60FB69BB61BB6983F390
:102200001088C046BB1D1A88B968FB68180000F02A
:10221000F7FD030000E002231800BD4608B080BDB2
:1022200090B5ABB000AF78607B681B68DB69A42217
:10223000B9180B607B681B681B68A02039180B60FD
:102240007B681B689B689C2179180B601100BB1888
:102250001B68994A13409822BC182360BB181B685E
:10226000002B14D17B181B68202213400FD03B1881
:102270001B68202213400AD07B689B6E002B00D184
:1022800086E27B689B6E7A681000984780E298230C
:10229000FB181B68002B00D114E19C23FB181B6862
:1022A0000122134006D1A023FB181B68834A134068
:1022B00000D107E1A423FB181B680122134012D0B0
:1022C000A023FB181A6880235B0013400BD07B68A7
:1022D0001B6801221A627B6884229B5801221A43E0
:1022E0007B6884215A50A423FB181B6802221340E8
:1022F00011D09C23FB181B68012213400BD07B6874
:102300001B6802221A627B6884229B5804221A43AB
:102310007B6884215A50A423FB181B6804221340B5
:1023200011D09C23FB181B68012213400BD07B6843
:102330001B6804221A627B6884229B5802221A437B
:102340007B6884215A50A423FB181B680822134081
:1023500017D0A023FB181B682022134005D19C2313
:10236000FB181B68012213400BD07B681B680822F6
:102370001A627B6884229B5808221A437B68842156
:102380005A50A423FB181A6880231B01134013D052
:10239000A023FB181A688023DB0413400CD07B6851
:1023A0001B68802212011A627B6884229B582022BB
:1023B0001A437B6884215A507B6884229B58002BE7
:1023C00000D1E7E1A423FB181B68202213400ED0A4
:1023D000A023FB181B682022134008D07B689B6E4B
:1023E000002B04D07B689B6E7A68100098477B684E
:1023F00084229B5894217A1813607B681B689B6821
:1024000040221340402B04D07B181B682822134025
:1024100047D07B68180000F0A9FD7B681B689B68AB
:1024200040221340402B37D1EFF310833B663B6EC5
:1024300090203A18136001237B667B6E83F310882B
:10244000C0467B681B689A687B681B6840218A438A
:102450009A603B181B68BB66BB6E83F31088C0464E
:102460007B685B6F002B12D07B685B6F144A5A63EA
:102470007B685B6F1800FEF7EDFB031E1AD07B68CC
:102480005B6F5A6B7B685B6F1800904712E07B684C
:10249000180000F095F90DE07B68180000F090F945
:1024A00008E07B68180000F08BF97B68842200212B
:1024B00099506FE1C0466DE10F0800002001000453
:1024C000353000087B681B6E012B00D039E1A42356
:1024D000FB181B681022134000D132E1A023FB1827
:1024E0001B681022134000D12BE17B681B6810226F
:1024F0001A627B681B689B6840221340402B00D007
:102500009FE07B685B6F1B685A687E217B181A808E
:102510007B181B88002B00D13EE17B6858229B5A18
:102520007A1812889A4200D336E17B687A185A21C9
:1025300012885A527B685B6F9B69202B6FD0EFF338
:1025400010833B633B6BBB6701237B637B6B83F334
:102550001088C0467B681B681A687B681B689249B4
:102560000A401A60BB6FBB63BB6B83F31088C04625
:10257000EFF31083FB63FB6B7B6701233B643B6CD6
:1025800083F31088C0467B681B689A687B681B6869
:1025900001218A439A607B6F7B647B6C83F3108894
:1025A000C046EFF31083BB64BB6C3B670123FB6445
:1025B000FB6C83F31088C0467B681B689A687B6855
:1025C0001B6840218A439A603B6F3B653B6D83F3F8
:1025D0001088C0467B688022202199507B680022A9
:1025E0001A66EFF310837B657B6DFB660123BB6589
:1025F000BB6D83F31088C0467B681B681A687B68D4
:102600001B6810218A431A60FB6EFB65FB6D83F328
:102610001088C0467B685B6F1800FEF7E3FA7B68A2
:1026200002225A667B6858229A5A7B685A215B5A62
:102630009BB2D31A9AB27B681100180000F0C8F858
:10264000AAE07B685822995A7B685A229B5A9AB210
:102650008E203B188A1A1A807B685A229B5A9BB29A
:10266000002B00D19AE03B181B88002B00D195E08D
:10267000EFF31083FB60FB6888243A191360012391
:102680003B613B6983F31088C0467B681B681A680E
:102690007B681B6845490A401A603B191B687B61CF
:1026A0007B6983F31088C046EFF31083BB61BB697D
:1026B00084243A1913600123FB61FB6983F31088BA
:1026C000C0467B681B689A687B681B6801218A4347
:1026D0009A603B191B683B623B6A83F31088C046D3
:1026E0007B688022202199507B6800221A667B68D3
:1026F00000229A66EFF310837B627B6A80243A198A
:1027000013600123BB62BB6A83F31088C0467B68F9
:102710001B681A687B681B6810218A431A603B1982
:102720001B68FB62FB6A83F31088C0467B68022249
:102730005A663B181A887B681100180000F048F8A8
:102740002CE0A423FB181B68802213400FD0A02389
:10275000FB181B688022134009D07B68DB6E002BBE
:102760001ED07B68DB6E7A681000984718E0A423BF
:10277000FB181B684022134013D0A023FB181B68D2
:10278000402213400DD07B68180000F06AFC08E07E
:10279000C04606E0C04604E0C04602E0C04600E095
:1027A000C046BD462BB090BDFFFEFFFFDFFEFFFF22
:1027B00080B582B000AF7860C046BD4602B080BD33
:1027C00080B582B000AF7860C046BD4602B080BD23
:1027D00080B582B000AF78600A00BB1C1A80C0468A
:1027E000BD4602B080BD000080B588B000AF786003
:1027F0001E23FB1800221A707B689A687B681B698D
:102800001A437B685B691A437B68DB6913437B610E
:102810007B681B681B688D4A134019007B681B6826
:102820007A690A431A607B681B685B68884A1340B0
:1028300019007B68DA687B681B680A435A607B680A
:102840009B697B617B681B6A7A6913437B617B6848
:102850001B689B687F4A134019007B681B687A6974
:102860000A439A607B681B687B4A934227D17B4B63
:102870001B6B03221340032B0DD01BD8022B14D04B
:1028800018D8002B02D0012B0AD013E01F23FB180D
:1028900000221A7021E01F23FB1802221A701CE08C
:1028A0001F23FB1804221A7017E01F23FB180822AD
:1028B0001A7012E01F23FB1810221A700DE07B68BB
:1028C0001B68674A934204D11F23FB1800221A7029
:1028D00003E01F23FB1810221A707B68DA6980233B
:1028E0001B029A425CD11F23FB181B78082B15D0C2
:1028F00018DC042B0DD015DC002B02D0022B05D0E8
:1029000010E0FFF7A7F90300BB6112E0554BBB6174
:102910000FE0FFF73FF90300BB610AE080231B02D1
:10292000BB6106E00023BB611E23FB1801221A7065
:10293000C046BB69002B00D17AE0BB695A007B68B6
:102940005B685B08D2187B685B6819001000FDF7B4
:10295000EDFB03003B613B690F2B1CD93A698023D7
:102960005B029A4217D23B699AB20E203B180F21A4
:102970008A431A803B695B089BB20722134099B2D5
:102980003B183A1812880A431A807B681B683A1869
:102990001288DA604CE01E23FB1801221A7047E00F
:1029A0001F23FB181B78082B15D018DC042B0DD027
:1029B00015DC002B02D0022B05D010E0FFF74AF9FE
:1029C0000300BB6112E0274BBB610FE0FFF7E2F8A9
:1029D0000300BB610AE080231B02BB6106E0002309
:1029E000BB611E23FB1801221A70C046BB69002B75
:1029F0001ED07B685B685A08BB69D2187B685B682D
:102A000019001000FDF792FB03003B613B690F2B9F
:102A10000AD93A6980235B029A4205D23B699AB28D
:102A20007B681B68DA6003E01E23FB1801221A7022
:102A30007B6800229A667B680022DA661E23FB18F8
:102A40001B781800BD4608B080BDC046F369FFFF83
:102A5000FFCFFFFFFFF4FFFF0038014000100240EE
:102A60000044004000127A0080B582B000AF786068
:102A70007B685B6A082213400BD07B681B685B682D
:102A80004A4A134019007B685A6B7B681B680A43EB
:102A90005A607B685B6A012213400BD07B681B681D
:102AA0005B68434A134019007B689A6A7B681B681D
:102AB0000A435A607B685B6A022213400BD07B6832
:102AC0001B685B683B4A134019007B68DA6A7B68C5
:102AD0001B680A435A607B685B6A042213400BD070
:102AE0007B681B685B68344A134019007B681A6B6B
:102AF0007B681B680A435A607B685B6A102213403C
:102B00000BD07B681B689B682C4A134019007B68BC
:102B10009A6B7B681B680A439A607B685B6A202219
:102B200013400BD07B681B689B68254A1340190033
:102B30007B68DA6B7B681B680A439A607B685B6A18
:102B4000402213401DD07B681B685B681D4A134000
:102B500019007B681A6C7B681B680A435A607B68A3
:102B60001A6C80235B039A420BD17B681B685B68FD
:102B7000154A134019007B685A6C7B681B680A432E
:102B80005A607B685B6A802213400BD07B681B68AD
:102B90005B680E4A134019007B689A6C7B681B685F
:102BA0000A435A60C046BD4602B080BDFF7FFFFFAA
:102BB000FFFFFDFFFFFFFEFFFFFFFBFFFFEFFFFF3C
:102BC000FFDFFFFFFFFFEFFFFFFF9FFFFFFFF7FFAD
:102BD00080B592B002AF78607B6884220021995062
:102BE000FDF7F4FE0300FB637B681B681B6808228B
:102BF0001340082B2CD1FB6B802291037868464A46
:102C00000092002200F08CF8031E21D0EFF3108315
:102C10007B627B6ABB630123BB62BB6A83F3108860
:102C2000C0467B681B681A687B681B6880218A43E2
:102C30001A60BB6BFB62FB6A83F31088C0467B683B
:102C40002022DA677B6878220021995403235FE011
:102C50007B681B681B6804221340042B46D1FB6B66
:102C60008022D10378682C4A0092002200F058F8A4
:102C7000031E3BD0EFF31083FB60FB687B630123F3
:102C80003B613B6983F31088C0467B681B681A6808
:102C90007B681B6821490A401A607B6B7B617B69FA
:102CA00083F31088C046EFF31083BB61BB693B63BD
:102CB0000123FB61FB6983F31088C0467B681B68B6
:102CC0009A687B681B6801218A439A603B6B3B6270
:102CD0003B6A83F31088C0467B688022202199508C
:102CE0007B68782200219954032311E07B6820221D
:102CF000DA677B688022202199507B6800221A665F
:102D00007B6800225A667B68782200219954002350
:102D10001800BD4610B080BDFFFFFF01DFFEFFFFC2
:102D200080B584B000AFF860B9603B60FB1D1A70DD
:102D300051E0BB6901334ED0FDF748FE02003B680D
:102D4000D31ABA699A4202D3BB69002B01D103237B
:102D500051E0FB681B681B68042213403BD0BB6832
:102D6000802B38D0BB68402B35D0FB681B68DB69F3
:102D700008221340082B11D1FB681B6808221A6235
:102D8000FB68180000F0F2F8FB68842208219950D3
:102D9000FB6878220021995401232CE0FB681B6812
:102DA000DA6980231B011A4080231B019A4212D149
:102DB000FB681B68802212011A62FB68180000F091
:102DC000D5F8FB68842220219950FB6878220021E5
:102DD000995403230FE0FB681B68DB69BA68134052
:102DE000BA68D31A5A425341DBB21A00FB1D1B7852
:102DF0009A429ED000231800BD4604B080BD00005A
:102E000080B590B000AFF860B960BB1D1A80FB6858
:102E1000BA685A65FB68BA1D582112885A52FB6875
:102E2000BA1D5A2112885A52FB6800229A66FB6822
:102E30009A6880235B019A420DD1FB681B69002BC5
:102E400004D1FB685C22464999521AE0FB685C2277
:102E5000FF21995215E0FB689B68002B0DD1FB68A0
:102E60001B69002B04D1FB685C22FF21995208E00A
:102E7000FB685C227F21995203E0FB685C22002101
:102E80009952FB68842200219950FB6880222221FC
:102E90009950EFF31083BB62BB6AFB630123FB62B3
:102EA000FB6A83F31088C046FB681B689A68FB685E
:102EB0001B6801210A439A60FB6B3B633B6B83F306
:102EC0001088C046FB689A6880235B019A4207D14C
:102ED000FB681B69002B03D1FB68224A9A6602E05B
:102EE000FB68214A9A66FB681B69002B19D0EFF337
:102EF0001083FB61FB697B6301233B623B6A83F3C5
:102F00001088C046FB681B681A68FB681B68902124
:102F100049000A431A607B6B7B627B6A83F31088EB
:102F200018E0EFF310833B613B69BB6301237B61D6
:102F30007B6983F31088C046FB681B681A68FB68CE
:102F40001B6820210A431A60BB6BBB61BB6983F31A
:102F50001088C04600231800BD4610B080BDC04692
:102F6000FF01000071320008B930000880B58EB052
:102F700000AF7860EFF310837B617B697B63012393
:102F8000BB61BB6983F31088C0467B681B681A6805
:102F90007B681B6826490A401A607B6BFB61FB69F2
:102FA00083F31088C046EFF310833B623B6A3B63B8
:102FB00001237B627B6A83F31088C0467B681B68B1
:102FC0009A687B681B6801218A439A603B6BBB62ED
:102FD000BB6A83F31088C0467B681B6E012B18D137
:102FE000EFF31083BB60BB68FB620123FB60FB68EF
:102FF00083F31088C0467B681B681A687B681B686F
:1030000010218A431A60FB6A3B613B6983F3108895
:10301000C0467B688022202199507B6800221A6676
:103020007B6800229A66C046BD460EB080BDC04691
:10303000DFFEFFFF80B584B000AF78607B685B6A1D
:10304000FB60FB685A2200219952FB685222002142
:103050009952FB681800FFF7B3FBC046BD4604B0A9
:1030600080BD80B586B000AF7860EFF31083BB60A1
:10307000BB687B610123FB60FB6883F31088C0465B
:103080007B681B681A687B681B6840218A431A604A
:103090007B693B613B6983F31088C0467B682022D3
:1030A000DA677B680022DA667B681800FFF780FB2E
:1030B000C046BD4606B080BD80B594B000AF786014
:1030C0004E203B187A685C21525A1A807B68802215
:1030D0009B58222B00D0BAE07B681A684C217B18E1
:1030E000928C1A807B181B88DAB23B181B88D9B2E5
:1030F0007B685B6D0A40D2B21A707B685B6D5A1CAC
:103100007B685A657B685A229B5A9BB2013B99B2F5
:103110007B685A2299527B685A229B5A9BB2002B99
:1031200000D09CE0EFF310837B627B6ABB640123D9
:10313000BB62BB6A83F31088C0467B681B681A6851
:103140007B681B6848490A401A60BB6CFB62FB6ADB
:1031500083F31088C046EFF310833B633B6B7B64C3
:1031600001237B637B6B83F31088C0467B681B68FD
:103170009A687B681B6801218A439A607B6CBB63F9
:10318000BB6B83F31088C0467B6880222021995056
:103190007B6800229A667B6800225A667B681B68FF
:1031A0005A6880231B04134018D0EFF31083BB61CF
:1031B000BB693B640123FB61FB6983F31088C04654
:1031C0007B681B681A687B681B6828490A401A607C
:1031D0003B6C3B623B6A83F31088C0467B681B6E86
:1031E000012B2FD17B6800221A66EFF31083FB605E
:1031F000FB68FB6301233B613B6983F31088C04696
:103200007B681B681A687B681B6810218A431A60F8
:10321000FB6B7B617B6983F31088C0467B681B680E
:10322000DB6910221340102B03D17B681B6810222E
:103230001A627B6858229A5A7B6811001800FFF7BF
:10324000C7FA0CE07B681800FDF7C4F907E07B685B
:103250001B689A697B681B6808210A439A61C0460B
:10326000BD4614B080BDC046DFFEFFFFFFFFFFFB81
:1032700080B594B000AF78604E203B187A685C212E
:10328000525A1A807B6880229B58222B00D0BAE0C9
:103290007B681A684C217B18928C1A807B685B6D66
:1032A000BB647B183A181B88128813409AB2BB6C17
:1032B0001A807B685B6D9A1C7B685A657B685A2212
:1032C0009B5A9BB2013B99B27B685A2299527B6808
:1032D0005A229B5A9BB2002B00D09CE0EFF3108344
:1032E0003B623B6A7B6401237B627B6A83F31088C9
:1032F000C0467B681B681A687B681B6848490A409F
:103300001A607B6CBB62BB6A83F31088C046EFF324
:103310001083FB62FB6A3B6401233B633B6B83F3DB
:103320001088C0467B681B689A687B681B6801210F
:103330008A439A603B6C7B637B6B83F31088C04647
:103340007B688022202199507B6800229A667B68E6
:1033500000225A667B681B685A6880231B0413404E
:1033600018D0EFF310837B617B69FB630123BB61A2
:10337000BB6983F31088C0467B681B681A687B684A
:103380001B6828490A401A60FB6BFB61FB6983F3E9
:103390001088C0467B681B6E012B2FD17B680022F2
:1033A0001A66EFF31083BB60BB68BB630123FB604D
:1033B000FB6883F31088C0467B681B681A687B68CB
:1033C0001B6810218A431A60BB6B3B613B6983F326
:1033D0001088C0467B681B68DB6910221340102BE5
:1033E00003D17B681B6810221A627B6858229A5AA4
:1033F0007B6811001800FFF7EBF90CE07B68180000
:10340000FDF7E8F807E07B681B689A697B681B6832
:1034100008210A439A61C046BD4614B080BDC0462B
:10342000DFFEFFFFFFFFFFFB80B582B000AF134B55
:1034300000221A60124BA02212055A60FB1D0022C6
:103440001A7012E00F4AFB1D1B7820339B000021ED
:1034500099500C4AFB1D1B7860339B00002199504A
:10346000FB1D1A78FB1D01321A70FB1D1B78002B07
:10347000E8D0C046C046BD4602B080BD10E000E0C6
:1034800000ED00E000E100E080B582B000AF7860C0
:103490007B68054A10001900C0231A0000F0B6FA34
:1034A000C046BD4602B080BD0000002080B584B09B
:1034B00000AF78607B68FB60FB681B68BB60BB6823
:1034C00083F30888C046FB685B689847C046BD46E2
:1034D00004B080BD0FB490B597B000AF08243B197D
:1034E000180050231A00002100F05CFA642308221F
:1034F0009B18DB197B607A68B96E3B19180000F0E5
:1035000045FA3B191800FCF7FFFD03009AB20123AE
:103510005B4239190448FEF78DFDC046BD4617B021
:1035200090BC08BC04B01847C001002080B582B030
:1035300000AF144B1B6804331B687B607B683B60E7
:10354000114B1800FFF7C6FF3A68104B1100180026
:10355000FFF7C0FF0E4B1800FDF742FAFFF764FFBC
:10356000084B1B681800FFF78FFF0A4B03221A60F5
:10357000044B1B681800FFF799FFC046BD4602B018
:1035800080BDC046E4000020B4420008E0420008CC
:10359000881300000000014080B584B000AF3B1DDF
:1035A00018000C231A00002100F0FCF9FDF72EFC96
:1035B0003B1D00221A600D4B1A683B1D5A603B1DD3
:1035C00014229A6000233B603A003B1D1100180052
:1035D000FDF7DCFCFDF740FC3A68054B11001800D4
:1035E000FFF778FFC046BD4604B080BDE400002070
:1035F00010430008B0B584B000AF78603960002394
:10360000FB60FDF703FC35E01F4B1B881A007B684D
:103610009B181B7819001C4B1B8801337A68D31840
:103620001B781B020A001A43174B1B880233796868
:10363000CB181B781B041A43134B1B880333796880
:10364000CB181B781B061343FB60FB681C00002390
:103650001D00396822002B000220FDF741FB0B4BB7
:103660001B681A1D094B1A60074B1B8804339AB25A
:10367000054B1A80044B1B88FF2BC5D9FDF7ECFBCB
:10368000C046BD4604B0B0BDB8050020E80000202B
:1036900080B582B000AF0200FB1D1A70FB1D1B78C5
:1036A000032B08D00DDC022B0ED00ADC002B0DD032
:1036B000012B03D005E0FFF739FF08E0FFF76CFFAF
:1036C00005E0FCF7D1FF02E0C04600E0C046C0467E
:1036D000BD4602B080BD000080B586B000AF786006
:1036E0001723FB1800221A700C23FB1807221A70EC
:1036F0002F4B5B78CC2B03D17B680E333B6105E00D
:103700002B4B5B78DD2B01D1FCF7AEFF0E23FB18B2
:1037100000221A803BE00E23FB181B883A69D3185D
:1037200019781722BB18BA1812784A401A700D235C
:10373000FB1800221A701FE017217B181B785BB260
:10374000002B0DDA7B181B785BB2DB185AB20C2306
:10375000FB181B785BB253405AB27B181A7005E015
:103760001723FA18FB181B78DB1813700D217B1830
:103770001A787B1801321A700D23FB181B78072B5F
:10378000DAD90E217B181A887B1801321A800E2391
:10379000FB181A8879688C235B00CB589A42BAD3FD
:1037A0001723FB181B781800BD4606B080BDC04625
:1037B0004802002080B586B000AF78601623FB1861
:1037C000012252421A800A23FB18614A1A80614B77
:1037D0005B78DD2B02D15F4B3B6105E05D4B5B7895
:1037E000CC2B01D1FCF740FF5B4B1B78002B4CD15D
:1037F0000F23FB1800221A703CE00F23FB181B78E4
:103800003A69D3181B7819001622BB18BA18128807
:103810004A401A800E23FB1800221A701FE016215E
:103820007B1800229B5E002B0DDA7B1800229B5E2A
:10383000DB181AB20A23FB1800201B5E53401AB291
:103840007B181A8005E01623FA18FB181B88DB1872
:1038500013800E217B181A787B1801321A700E2300
:10386000FB181B78072BDAD90F217B181A787B18E5
:1038700001321A700F23FB181B78022BBDD9364B6F
:103880001B780133DAB2344B1A70334B1B78002BA0
:1038900057D0314B1A78314B1B789A4251D20D23B5
:1038A000FB1803221A703CE00D23FB181B783A69C1
:1038B000D3181B7819001622BB18BA1812884A4070
:1038C0001A800C23FB1800221A701FE016217B18A7
:1038D00000229B5E002B0DDA7B1800229B5EDB181A
:1038E0001AB20A23FB1800201B5E53401AB27B1841
:1038F0001A8005E01623FA18FB181B88DB181380C2
:103900000C217B181A787B1801321A700C23FB18D3
:103910001B78072BDAD90D217B181A787B18013216
:103920001A700D23FB181A7879688C235B00CB582A
:10393000033B9A42B8D3084B1B780133DAB2064BEB
:103940001A701623FB181B881800BD4606B080BDF0
:1039500021100000480200208D0500208C05002069
:1039600010B500249AB0009104910649199405916C
:10397000029105490391694600F0AEF9009B1C7065
:103980001AB010BDFFFFFF7F0802FFFF10B5044C07
:1039900013000A0001002068FFF7E2FF10BDC046D7
:1039A000EC00002003008218934200D17047197088
:1039B0000133F9E7014B18687047C046EC0000205E
:1039C00070B500260C4C0D4D641BA410A64209D105
:1039D000002600F063FC0A4C0A4D641BA410A642AA
:1039E00005D170BDB300EB5898470136EEE7B30040
:1039F000EB5898470136F2E7C4430008C443000877
:103A0000C8430008C443000870477047002310B53E
:103A10009A4200D110BDCC5CC4540133F8E70000D9
:103A200070B505000C1E10D0043C2368002B00DA92
:103A3000E418280000F0E0F81D4A1368002B05D1B7
:103A400063601460280000F0DFF870BDA34208D95D
:103A5000206821188B42F3D119685B68091821602E
:103A6000EEE71A005B68002B01D0A342F9D9116878
:103A70005018A0420BD120680918501811608342D9
:103A8000E0D118685B68411811605360DAE7A04222
:103A900002D90C232B60D5E7206821188B4203D173
:103AA00019685B680918216063605460CAE7C04602
:103AB0000007002070B50F4E0D003168040000298A
:103AC00002D100F095FB30602900200000F090FB4F
:103AD000431C03D101256D42280070BD0323C51C82
:103AE0009D43A842F8D0291A200000F081FB013044
:103AF000F2D1EFE7FC060020F7B50322CB1C93437D
:103B0000083305001F000C2B34D20C27B94233D8E0
:103B1000280000F071F8374E33681C00002C2FD1BC
:103B200039002800FFF7C6FF0400431C5FD134684A
:103B30000094009B002B4AD1002C52D0236828000F
:103B4000E3180099019300F053FB019B834248D195
:103B500023682800FF1A3900FFF7ACFF013040D07E
:103B60002368DB19236033685A68002A33D1009B2D
:103B7000336019E0002BC9DA0C232B600020FEBD56
:103B80002168C91B20D40B290AD9E2192760A34256
:103B900004D1326063681160536005E05A60F9E750
:103BA0006268A3420ED13260280000F02DF8200098
:103BB00007220B30231D9043C21A9842DFD01B1AF4
:103BC000A350DCE75A60EFE723006468A6E7009C97
:103BD00063680093ADE71A005B68A342FBD1002342
:103BE000DAE70C2328002B6000F00EF8C6E7076028
:103BF000DAE7C0460007002010B50248FFF704FFCF
:103C000010BDC046F806002010B50248FFF7FDFEC3
:103C100010BDC046F8060020F0B58E6885B01F00C4
:103C20000C000B6802900392BE4230D80C21625EF9
:103C30009021C9000A4228D0032021695B1A019310
:103C4000636943430198DD0FED187B1C1B186D1051
:103C5000AB4200D91D00520528D529000298FFF774
:103C60004BFF061E2CD0019A2169FFF7CFFEA289D7
:103C7000184B1A4080231343A381019B2661F61839
:103C800026603E006561ED1AA560BE4200D93E0087
:103C900032000399206800F099FA0020A3689B1B6A
:103CA000A36023689B19236005B0F0BD2A00029829
:103CB00000F0BBFA061EE0D121690298FFF7B0FEC2
:103CC0000C230120029A40421360A289343313432B
:103CD000A381E9E77FFBFFFFF0B5A1B003901D00D2
:103CE0008B890F0016001B0611D50B69002B0ED116
:103CF0004021FFF701FF38603861002805D10C230F
:103D0000039A136001204042CFE040237B610023EF
:103D100008AC6361203363761033A37607953500D2
:103D20002B78002B01D0252B48D1AB1B0593B54236
:103D30000BD0320039000398FFF76EFF013000D13D
:103D4000AEE06369059A9B1863612B78002B00D164
:103D5000A6E0012200235242626004A954325218A4
:103D60006E1C2360E360A3601370A365544B0522AF
:103D700018003178059300F04DFA751C00281FD10A
:103D80002268D30604D5532304A95B182021197097
:103D9000130704D5532304A95B182B21197033781A
:103DA0002A2B16D0350000210A20E3682A786E1CE1
:103DB000303A092A50D9002911D117E00135AFE76F
:103DC000059B2268C01A0123834013432E00236001
:103DD000CCE7079B191D1B680791002B01DB0B9398
:103DE00004E05B42E3600223134323602B782E2B15
:103DF0000CD16B782A2B34D1079B02351A1D1B6816
:103E00000792002B01DA01235B4209932D4E032216
:103E10003000297800F0FEF9002806D04023801BEE
:103E200083402268013513432360297806222648FF
:103E30006E1C217600F0EEF9002838D0234B002BC1
:103E400022D10722079B0733934308330793636903
:103E5000049A9B18636162E74343350001219B1874
:103E6000A4E700230A201900013563602A786E1C3C
:103E7000303A092A03D9002BC8D00991C6E741433B
:103E8000350001238918F1E707AA009221003A00C2
:103E90000F4B039800E000BF0490049B0133D6D180
:103EA000BB890D985B0600D52CE721B0F0BD07AAB1
:103EB000009221003A00064B039800F07BF8EBE7F4
:103EC00090430008964300089A4300080000000051
:103ED000193C0008F7B5160001938A680B690C00BD
:103EE0000090934200DA13002200336043321278CC
:103EF000002A01D00133336023689B0602D5336862
:103F0000023333602268062315001D401A4227D071
:103F1000230043331B785A1E93412268920630D403
:103F2000220001990098089D4332A847013025D00E
:103F30000622236800251340042B05D13368E56869
:103F4000ED1AEB43DB171D40A3682269934201DDA4
:103F50009B1AED180026B54220D1002010E0013553
:103F6000E36832689B1AAB42D2DD2200012301993B
:103F70000098089F1932B8470130F0D10120404223
:103F8000FEBD3020E1184331087021005A1C453134
:103F90000978A218433202331170C1E722000123CD
:103FA00001990098089F1A32B8470130E6D00136CF
:103FB000D1E70000F0B58BB006920A0043320793B8
:103FC000059003920A7E0C00109B782A09D8622A79
:103FD0000BD8002A00D1BAE07A490491582A00D1BE
:103FE0008EE0250042352A7022E010006338152843
:103FF000F7D8FCF791F816001F00F6FFF6FFF6FF62
:10400000F6FF1F00F6FFF6FFF6FFF6FF9F003600F3
:104010007E00F6FFF6FFB000F6FF3600F6FFF6FF73
:10402000820025001A684235111D196013682B7033
:1040300001239EE018680968021D0D060BD506686D
:104040001A60002E03DA2D23039A764213705D4B1B
:104050000A27049318E006681A604906F1D536B2BB
:10406000EFE70868196840C9050602D4400600D584
:10407000B6B21960534B0A2704936F2A00D1023F4E
:104080002300002243331A706368A360002B06DB11
:1040900004212268039D8A43226033430CD0039D90
:1040A00030003900FCF7C8F8049B013D5B5C2B70C5
:1040B000330006009F42F3D9082F09D12368DB079C
:1040C00006D5626823699A4202DC3023013D2B70D9
:1040D000039B5B1B2361079B210000930598069BB4
:1040E00009AAFFF7F7FE013048D1012040420BB08A
:1040F000F0BD202209680A432260782232490491E7
:10410000210045310A701968226840C9100602D49E
:10411000500600D5B6B21960D30702D52023134349
:104120002360002E01D01027AAE7202223689343A2
:104130002360F8E71A680D68101D49691860136854
:104140002E0601D5196002E06D06FBD5198000230B
:10415000039D2361BFE71A68111D196015680021CE
:104160002800626800F056F8002801D0401B60600B
:10417000636823610023039A1370ACE72A00236964
:1041800006990598079DA8470130AED023689B0784
:1041900015D4099BE0689842A9DA1800A7E7220025
:1041A000012306990598079E1932B04701309CD02B
:1041B0000135E368099A9B1AAB42F0DCE9E7002578
:1041C000F7E7C046A1430008B243000810B5884293
:1041D00002D98B18984208D300239A4207D0CC5CAE
:1041E000C4540133F9E78B5C8354013AFBD210BD10
:1041F000002370B5064D040008002B60FCF726FB79
:10420000431C03D12B68002B00D0236070BDC04637
:10421000F4060020C9B28218904201D100207047F4
:1042200003788B42FBD00130F6E7F7B506000C00AF
:104230001500002905D11100FFF75EFC04002000E5
:10424000FEBD002A03D1FFF7EBFB2C00F7E700F0DF
:104250001CF80700854202D84308AB42EFD329007F
:104260003000FFF749FC0190002801D1019CE6E7EE
:104270002A00BD4200D93A0021000198FFF7C6FB91
:1042800021003000FFF7CCFBF0E70B1F1B68181F65
:10429000002B01DA0B58C01870470000F8B5C04673
:1042A000F8BC08BC9E467047F8B5C046F8BC08BCD0
:0442B0009E4670476F
:1042B400424C5F4442475F4D53473A20426F6F740C
:1042C4006C6F61646572206A756D7020746F2075FF
:1042D400736572206170700D0A000000424C5F44E7
:1042E40042475F4D53473A204170702072657365B1
:1042F400742068616E646C657220616464723A2033
:104304002523780D0A0A0A0A00000000232323202B
:104314004572617365642032306B42206170706C49
:1043240069636174696F6E20636F6465207061678F
:1043340065732E2050616765206572726F72206309
:104344006F64653A2030782530386C582023232355
:104354000D0A000000000000000000000102030438
:104364000607080900000000010203040203040513
:10437400060708090A0B0C0D0E0F101001020304A6
:1043840005060708090A0B0C0D0E0F10232D302B00
:104394002000686C4C006566674546470030313242
:1043A4003334353637383941424344454600303199
:1043B40032333435363738396162636465660000F8
:0443C400E900000804
:0443C800C100000828
:1043CC00424C5F41434B0D0A0A000000424C5F4EC9
:1043DC0041434B0D0A0A000000127A000400000051
:1043EC00010000000060000800600008F0000020E0
:1043FC0000000000BC050020240600208C060020D4
:10440C0000000000000000000000000000000000A0
:10441C000000000000000000000000000000000090
:10442C000000000000000000000000000000000080
:0C443C0000000000000000000000000074
:04000005080008C522
:00000001FF
