:020000040800F2
:1000000000200020E509000821090008290900084E
:1000100000000000000000000000000000000000E0
:10002000000000000000000000000000310900088E
:1000300000000000000000003B090008450900081E
:10004000350A000800000000350A0008350A0008DB
:10005000350A0008350A0008350A0008350A000884
:1000600000000000350A000855090008350A00089C
:10007000350A0008350A0008350A000800000000AB
:10008000350A0008350A000800000000350A00089B
:10009000350A0008350A0008350A0008350A000844
:1000A000350A0008350A0008350A0008350A000834
:1000B000350A0008000000000000000000000000F9
:1000C00010B5064C2378002B07D1054B002B02D02E
:1000D000044800E000BF0123237010BD4001002050
:1000E000000000009C3D0008044B10B5002B03D01D
:1000F0000349044800E000BF10BDC04600000000F6
:10010000440100209C3D00080023C25C0133002A0A
:10011000FBD1581E7047000003B4714649084000E7
:100120004900095E49008E4403BC70470022430821
:100130008B4274D303098B425FD3030A8B4244D3AF
:10014000030B8B4228D3030C8B420DD3FF220902F1
:1001500012BA030C8B4202D31212090265D0030BB0
:100160008B4219D300E0090AC30B8B4201D3CB03A6
:10017000C01A5241830B8B4201D38B03C01A5241E8
:10018000430B8B4201D34B03C01A5241030B8B42EA
:1001900001D30B03C01A5241C30A8B4201D3CB02D5
:1001A000C01A5241830A8B4201D38B02C01A5241BA
:1001B000430A8B4201D34B02C01A5241030A8B42BD
:1001C00001D30B02C01A5241CDD2C3098B4201D3D5
:1001D000CB01C01A524183098B4201D38B01C01A53
:1001E000524143098B4201D34B01C01A52410309CA
:1001F0008B4201D30B01C01A5241C3088B4201D379
:10020000CB00C01A524183088B4201D38B00C01A25
:10021000524143088B4201D34B00C01A5241411A4C
:1002200000D20146524110467047FFE701B5002059
:1002300000F006F802BDC0460029F7D076E7704707
:100240007047C04680B500AF00F0F6FB00F0FAF84A
:1002500000F0E8F900F0C8F900F096F900F054F960
:1002600083235A006749684B180002F02CF9674B4A
:1002700008221A70654A8C235B000321D150634B1E
:1002800000225A60614B00221A73604B00225A739D
:100290005F4A8C235B000421FF31D1505C4B082264
:1002A0001A705C4B1B78DBB2012B2ED1554B5B785F
:1002B000CC2B2AD1574B00221A70544B180002F055
:1002C000FDFF03001A00544B1A704E4BDA78524B64
:1002D0001B789A420FD1FA239B0050494A480922C1
:1002E00002F052F8052000F00BFC484B1B7C180074
:1002F00002F0C1FF85E0FA239B00494942480A22E7
:1003000002F042F800F01EFA7BE0424B1B78DBB2B1
:10031000012B49D13B4B5B78DD2B45D13D4B002276
:100320001A703B4B180003F037F803001A003D4BDE
:100330001A803C4B1B881800324A0423FF33D35CDD
:100340001B023049822252008A5C1343984221D119
:10035000354B1B780133DAB2334B1A70324B1B78B2
:10036000012B01D102F008FF304B1A68304B11000D
:10037000180002F02FFF2D4B1B685A1CFF322B4B2D
:100380001A602C4B1A88274B1B88D3189AB2294B1A
:100390001A8036E0FA239B0021491B480A2201F00B
:1003A000F3FF00F0CFF92CE01A4B1B78DBB2012BE6
:1003B00000D076E7134B5B78FF2B00D071E71E4B24
:1003C0001A781E4B1B789A4210D11A4B1A881C4B74
:1003D0001B889A420AD10F4B00221A70FA239B0005
:1003E0000E490948092201F0CFFF0AE0FA239B00D9
:1003F0000B4905480A2201F0C7FF02F0BDFE00F0DC
:10040000A1F94EE78C020020C001002098030020D3
:10041000B40400209203002093030020C0000020B9
:10042000CC00002094030020D2050020D80000203A
:10043000CA040020D4050020D1050020D0050020EA
:10044000D605002090B595B000AF20243B191800C8
:1004500030231A00002103F025F81023FB181800A0
:1004600010231A00002103F01DF83B001800102390
:100470001A00002103F016F821007B1802221A60EE
:100480007B180122DA607B1810221A617B18022285
:100490001A627B1800225A627B18A02292039A6289
:1004A0007B180022DA627B18180001F035F9031E70
:1004B00001D000F047F910217B1807221A607B1841
:1004C00002225A607B1800229A607B180022DA60B0
:1004D0007B180121180001F039FC031E01D000F047
:1004E00031F93B0001221A603B0000229A603B0078
:1004F000180001F06FFD031E01D000F023F9C04683
:10050000BD4615B090BD000080B500AF1C4B1D4A24
:100510001A601B4B822252005A60194B8022120231
:100520009A60174BC0229200DA60154B00221A61C4
:10053000134B00225A61124B802292009A61104B99
:100540001022DA610E4B00221A620D4B00225A6211
:100550000B4B00229A620A4B0722DA62084B0022F8
:100560001A63074B08225A63054B180001F000FE7E
:10057000031E01D000F0E6F8C046BD4680BDC0466F
:100580005C0100200030014080B500AF144B154ADB
:100590001A60134BE12252025A60114B00229A60FA
:1005A0000F4B0022DA600E4B00221A610C4B0C221A
:1005B0005A610B4B00229A61094B0022DA61084B09
:1005C00000221A62064B00225A62054B180001F005
:1005D00087FE031E01D000F0B5F8C046BD4680BDC1
:1005E000C00100200038014080B582B000AF0C4B44
:1005F0005A690B4B01210A435A61094B5B6901227D
:1006000013407B607B68002200210A2000F048FB39
:100610000A2000F05AFBC046BD4602B080BDC0466D
:100620000010024080B582B000AF094B5A69084BF8
:10063000802189020A435A61054B5A6980239B0233
:1006400013407B607B68C046BD4602B080BDC0469B
:100650000010024080B582B000AF78607B681B68F4
:100660002F4A934250D12F4B5B78CC2B0FD12D4B7F
:100670001B78242B0BD12C4B01221A702B4B0E22F2
:1006800028499B180522180002F040FF3CE0254B4A
:100690005B78DD2B18D1234B1B78242B14D1224BF4
:1006A00001221A701F4B9A78214B1A7083235A002B
:1006B0001C49204B180002F029FF1F4B1B78013307
:1006C000DAB21D4B1A701FE0164B5B78FF2B14D16A
:1006D000144B1B78242B10D1134B01221A70114B91
:1006E0009B781BB21B021AB20E4BDB781BB2134372
:1006F0001BB29AB2114B1A8006E083235A00094BB1
:100700000021180002F0CEFE83235A0005490C4B4D
:10071000180001F0D8FEC046BD4602B080BDC046FC
:10072000003801408C020020920300209803002032
:10073000D0050020C7040020D1050020D6050020E8
:10074000C001002080B500AF72B6C046C046FDE7CC
:1007500080B582B000AF0F4B9A690E4B01210A435E
:100760009A610C4B9B69012213407B607B68094BAB
:10077000DA69084B802149050A43DA61054BDA69D9
:1007800080235B0513403B603B68C046BD4602B01A
:1007900080BDC0460010024090B58BB000AF7860BD
:1007A00014243B19180014231A00002102F07AFEC9
:1007B0007B681B681C4A934232D11C4B9A691B4BC5
:1007C000802149010A439A61184B9A6980235B0191
:1007D00013403B613B69154B5A69144B80218902D8
:1007E0000A435A61114B5A6980239B021340FB60F4
:1007F000FB6821007B18A0221A607B1802225A6035
:100800007B1800229A607B180322DA607B18002292
:100810001A617A189023DB051100180000F00CFE15
:10082000C046BD460BB090BD0030014000100240F4
:1008300090B58BB000AF786014243B1918001423D6
:100840001A00002102F02EFE7B681B68304A93429A
:100850005AD1304B9A692F4B8021C9010A439A61C2
:100860002C4B9A698023DB0113403B613B69294B88
:100870005A69284B802189020A435A61254B5A69DB
:1008800080239B021340FB60FB683B19C022D2000F
:100890001A6021007B1802225A607B1800229A609D
:1008A0007B180322DA607B1801221A617A189023E0
:1008B000DB051100180000F0BFFD174B174A1A6046
:1008C000154B00225A60144B00229A60124B802272
:1008D000DA60114B00221A610F4B00225A610E4B55
:1008E00020229A610C4BC0229201DA610A4B180057
:1008F00000F008FA031E01D0FFF724FF7B68064AC8
:100900005A67054B7A685A62C046BD460BB090BD27
:100910000038014000100240480200203000024030
:1009200080B500AFC046FDE780B500AFC046FDE72B
:1009300080B500AFC046BD4680BD80B500AFC046A3
:10094000BD4680BD80B500AF00F0BEF8C046BD46D4
:1009500080BD000080B500AF034B180000F080FAA6
:10096000C046BD4680BDC0464802002080B586B066
:1009700000AF7860144A154BD31A7B617B693B61E9
:10098000134B1B68002B02D1114B124A1A60104BFB
:100990001A687B68D3183A699A4207D202F08AFD36
:1009A00003000C221A6001235B4209E0084B1B681C
:1009B000FB60074B1A687B68D218054B1A60FB680E
:1009C0001800BD4606B080BD0020002000040000D5
:1009D000D80500204807002080B500AFC046BD46BE
:1009E00080BD00000D488546FFF7F6FF0C480D4915
:1009F0000D4A002302E0D458C4500433C4188C427A
:100A0000F9D30A4A0A4C002301E013600432A242DF
:100A1000FBD302F055FDFFF715FCFEE70020002098
:100A2000C00000203C010020CC3E00084001002016
:100A300048070020FEE7000080B500AF074B1A68AA
:100A4000064B10210A431A60032000F009F8FFF753
:100A50007FFE00231800BD4680BDC0460020024036
:100A600090B583B000AF7860144B1C68144B1B78B2
:100A70001900FA239800FFF759FB03001900200022
:100A8000FFF754FB0300180000F02FF9031E01D0FC
:100A900001230FE07B68032B0BD8796801235B42AD
:100AA0000022180000F0FCF8064B7A681A60002358
:100AB00000E001231800BD4603B090BDDC0000201B
:100AC000E4000020E000002080B500AF054B1B785B
:100AD0001A00054B1B68D218034B1A60C046BD466E
:100AE00080BDC046E4000020DC05002080B500AFDA
:100AF000024B1B681800BD4680BDC046DC050020C7
:100B000080B584B000AF7860FFF7F0FF0300BB60F2
:100B10007B68FB60FB68013305D00A4B1B781A0029
:100B2000FB689B18FB60C046FFF7E0FF0200BB6854
:100B3000D31AFA689A42F7D8C046C046BD4604B0F8
:100B400080BDC046E400002080B582B000AF020046
:100B5000FB1D1A70FB1D1B787F2B09D8FB1D1B7812
:100B60001A001F231A40044B012191400A001A6009
:100B7000C046BD4602B080BD00E100E090B583B044
:100B800000AF02003960FB1D1A70FB1D1B787F2B24
:100B900028D82F4AFB1D1B785BB29B08C0339B00F3
:100BA0009B58FA1D1278110003220A40D200FF213F
:100BB00091400A00D2431A4011003B689B01FF227A
:100BC0001A40FB1D1B78180003230340DB009A40EA
:100BD0001F48FB1D1B785BB29B080A43C0339B0078
:100BE0001A5031E01B4AFB1D1B7819000F230B40E4
:100BF000083B9B0806339B00D31804331B68FA1D7F
:100C00001278110003220A40D200FF2191400A000D
:100C1000D2431A4011003B689B01FF221A40FB1D82
:100C20001B78180003230340DB009A400948FB1D92
:100C30001B781C000F232340083B9B080A43063304
:100C40009B00C31804331A60C046BD4603B090BD74
:100C500000E100E000ED00E080B582B000AF786018
:100C60007B685A1E80235B049A4201D3012310E063
:100C70000A4B7A68013A5A6001235B42032118004B
:100C8000FFF77CFF054B00229A60044B07221A6095
:100C900000231800BD4602B080BDC04610E000E051
:100CA00080B584B000AFB9607A600F217B18021C58
:100CB0001A70BA687B181B785BB211001800FFF736
:100CC0005DFFC046BD4604B080BD80B582B000AFB8
:100CD0000200FB1D1A70FB1D1B785BB21800FFF7AA
:100CE00033FFC046BD4602B080BD80B582B000AFC4
:100CF00078607B681800FFF7AFFF03001800BD465F
:100D000002B080BD80B584B000AF78600023FB6086
:100D10007B68002B01D1012336E07B682122022170
:100D200099547B681B681B68FB60FB68184A13407A
:100D3000FB607B685A687B689B681A437B68DB684A
:100D40001A437B681B691A437B685B691A437B689B
:100D50009B691A437B68DB691343FA681343FB60A2
:100D60007B681B68FA681A607B68180000F046F917
:100D70007B6800229A637B682122012199547B6859
:100D800020220021995400231800BD4604B080BDE4
:100D90000FC0FFFF80B586B000AFF860B9607A6021
:100DA0003B601723FB1800221A70FB6820229B5C13
:100DB000012B01D102234FE0FB682022012199542D
:100DC000FB6821229B5CDBB2012B3AD1FB6821221C
:100DD00002219954FB6800229A63FB681B681A6819
:100DE000FB681B6801218A431A603B687A68B9680E
:100DF000F86800F0D7F8FB68DB6A002B08D0FB68C6
:100E00001B681A68FB681B680E210A431A600FE012
:100E1000FB681B681A68FB681B680A210A431A6092
:100E2000FB681B681A68FB681B6804218A431A6008
:100E3000FB681B681A68FB681B6801210A431A607B
:100E400007E0FB682022002199541723FB18022297
:100E50001A701723FB181B781800BD4606B080BD1A
:100E600080B584B000AF78607B68DB6B1B68FB608B
:100E70007B681B681B68BB607B681B6C04229A4004
:100E80001300FA68134024D0BB680422134020D01A
:100E90007B681B681B682022134007D17B681B6896
:100EA0001A687B681B6804218A431A607B681A6C85
:100EB0007B68DB6B042191400A005A607B68DB6A27
:100EC000002B00D16AE07B68DB6A7A6810009847E3
:100ED00064E07B681B6C02229A401300FA6813409E
:100EE0002BD0BB680222134027D07B681B681B688D
:100EF000202213400BD17B681B681A687B681B6833
:100F00000A218A431A607B682122012199547B6857
:100F10001A6C7B68DB6B022191400A005A607B6887
:100F20002022002199547B689B6A002B36D07B6875
:100F30009B6A7A681000984730E07B681B6C082237
:100F40009A401300FA68134028D0BB680822134067
:100F500024D07B681B681A687B681B680E218A4353
:100F60001A607B681A6C7B68DB6B012191400A0078
:100F70005A607B6801229A637B682122012199547F
:100F80007B682022002199547B681B6B002B05D0C5
:100F90007B681B6B7A6810009847FFE7C046BD4628
:100FA00004B080BD80B584B000AFF860B9607A60ED
:100FB0003B60FB681A6CFB68DB6B012191400A0007
:100FC0005A60FB681B683A685A60FB685B68102BC4
:100FD00008D1FB681B687A689A60FB681B68BA686E
:100FE000DA6007E0FB681B68BA689A60FB681B68F8
:100FF0007A68DA60C046BD4604B080BD80B582B074
:1010000000AF78607B681B68084A944663441421EB
:101010001800FFF78BF803009A007B681A647B685E
:10102000034ADA63C046BD4602B080BDF8FFFDBF8B
:1010300000000240F0B587B000AFF860B9603A60D8
:101040007B601723FB1801221A701623FB1800225D
:101050001A701523FB1800221A703E4B1B7E012BC1
:1010600001D1022372E03B4B01221A761723FE18AE
:10107000394B180000F0C4F8030033701723FB1835
:101080001B78002B5CD1FB68012B04D11523FB18C6
:1010900001221A700BE0FB68022B04D11523FB1808
:1010A00002221A7003E01523FB1804221A7016237B
:1010B000FB1800221A7039E016217B181B785A00A1
:1010C000BB68D0187B181B781B011A00203A002A35
:1010D00003DB7968D1400C0008E02022D21A79683D
:1010E00091400A003968D9400C0014437A68DA400C
:1010F0001500A3B2190000F067F81723FE18164B6D
:10110000180000F07DF803003370144B1A69134B7C
:1011100001218A431A611723FB181B78002B0ED17B
:1011200016217B181A787B1801321A701623FA18C8
:101130001523FB1812781B789A42BDD300E0C046F5
:10114000044B00221A761723FB181B781800BD46A3
:1011500007B0F0BDE005002050C3000000200240B1
:1011600080B582B000AFFB1D00221A700C4B1B69CA
:10117000802213400DD00A4B0A4A5A60084B0A4A93
:101180005A60074B1B698022134002D0FB1D0122CD
:101190001A70FB1D1B781800BD4602B080BDC0460A
:1011A0000020024023016745AB89EFCD80B500AF39
:1011B000044B1A69034B80210A431A61002318006B
:1011C000BD4680BD0020024080B582B000AF78608F
:1011D0000A00BB1C1A80084B0022DA61074B1A690F
:1011E000064B01210A431A617B68BA1C12881A80D7
:1011F000C046BD4602B080BDE00500200020024090
:1012000080B584B000AF7860FFF770FC0300FB602E
:101210000FE07B6801330CD07B68002B07D0FFF711
:1012200065FC0200FB68D31A7A689A4201D2032354
:101230001FE0124BDB6801221340012BE9D00F4B5A
:10124000DB6820221340202B02D10C4B2022DA60D5
:101250000A4BDB6810221340102B05D0074BDB68CC
:1012600004221340042B03D100F00AF8012300E00C
:1012700000231800BD4604B080BDC04600200240D7
:1012800080B582B000AF00237B60134BDB68102277
:101290001340102B09D1114BDB6902221A430F4B6B
:1012A000DA617B68102213437B600B4BDB680422FE
:1012B0001340042B09D1094BDB6901221A43074B68
:1012C000DA617B68042213437B60034B7A68DA603F
:1012D000C046BD4602B080BD00200240E0050020AF
:1012E000B0B584B000AF786039600F23FB180122DD
:1012F0001A700023BB60324B1B7E012B01D10223ED
:101300005AE02F4B01221A767B681B68012B16D1FD
:101310002C4B1800FFF774FF031E47D100F056F85E
:101320000F23FC18274B1800FFF76AFF03002370F8
:10133000254B1A69244B04218A431A6136E0214B5C
:101340001800FFF75DFF031E30D13B6801225242B7
:101350001A607B685B68BB601FE0BB68180000F028
:101360004DF80F257C19174B1800FFF749FF0300B4
:101370002370154B1A69144B02218A431A617B1999
:101380001B78002B03D03B68BA681A600EE0BB687C
:101390008022D20094466344BB607B689B689A02BB
:1013A0007B685B68D318BA689A42D6D3044B002294
:1013B0001A760F23FB181B781800BD4604B0B0BD89
:1013C000E005002050C300000020024080B500AFBF
:1013D000084B0022DA61084B1A69074B04210A43C3
:1013E0001A61054B1A69044B40210A431A61C04631
:1013F000BD4680BDE00500200020024080B582B0DF
:1014000000AF78600A4B0022DA610A4B1A69094B77
:1014100002210A431A61074B7A685A61054B1A691F
:10142000044B40210A431A61C046BD4602B080BD4C
:10143000E00500200020024080B586B000AF786053
:10144000396000237B614FE13B681B6801217A69A9
:1014500091400A001340FB60FB68002B00D140E183
:101460003B685B6803221340012B05D03B685B6837
:1014700003221340022B30D17B689B683B617B6960
:101480005B0003229A401300DA433B6913403B613F
:101490003B68DA687B695B009A4013003A69134342
:1014A0003B617B683A699A607B685B683B610122BB
:1014B0007B699A401300DA433B6913403B613B6808
:1014C0005B681B0901221A407B699A4013003A6944
:1014D00013433B617B683A695A603B685B6803224F
:1014E0001340032B17D07B68DB683B617B695B0093
:1014F00003229A401300DA433B6913403B613B6887
:101500009A687B695B009A4013003A6913433B6118
:101510007B683A69DA603B685B6803221340022B00
:1015200023D17B69DA087B6808329200D3583B618B
:101530007B69072213409B000F229A401300DA4375
:101540003B6913403B613B681A697B6907210B408B
:101550009B009A4013003A6913433B617B69DA08A8
:101560007B68083292003969D1507B681B683B6107
:101570007B695B0003229A401300DA433B69134006
:101580003B613B685B6803221A407B695B009A40C1
:1015900013003A6913433B617B683A691A603B6800
:1015A0005A68C0239B02134000D19AE0544B9A69B9
:1015B000534B01210A439A61514B9B69012213400D
:1015C000BB60BB684F4A7B699B0802339B009B58FA
:1015D0003B617B69032213409B000F229A4013005A
:1015E000DA433B6913403B617A689023DB059A42FA
:1015F00013D07B68444A93420DD07B68434A9342A0
:1016000007D07B68424A934201D1032306E00523B9
:1016100004E0022302E0012300E000237A690321B1
:101620000A40920093403A6913433B6135497B6914
:101630009B0802339B003A695A50364B9B683B61CA
:10164000FB68DA433B6913403B613B685A6880237F
:101650005B03134003D03A69FB6813433B612D4B96
:101660003A699A602B4BDB683B61FB68DA433B6964
:1016700013403B613B685A6880239B03134003D0AF
:101680003A69FB6813433B61224B3A69DA60214BAC
:101690005B683B61FB68DA433B6913403B613B6835
:1016A0005A6880239B02134003D03A69FB681343B6
:1016B0003B61184B3A695A60164B1B683B61FB68EB
:1016C000DA433B6913403B613B685A6880235B0205
:1016D000134003D03A69FB6813433B610D4B3A69F1
:1016E0001A607B6901337B613B681A687B69DA4069
:1016F000131E00D0A8E6C046C046BD4606B080BD59
:1017000000100240000001400004004800080048AA
:10171000000C00480004014080B588B000AF78603C
:101720007B68002B01D1012301E37B681B68012248
:10173000134000D18DE0C34B5B680C221340042B97
:101740000ED0C04B5B680C221340082B16D1BD4B4A
:101750005A6880235B021A4080235B029A420DD1B3
:10176000B84B1A6880239B02134000D170E07B685D
:101770005B68002B00D06BE00123D8E27B685B68DC
:10178000012B07D1AF4B1A68AE4B802149020A43A7
:101790001A602FE07B685B68002B0CD1A94B1A689C
:1017A000A84BA9490A401A60A64B1A68A54BA7493D
:1017B0000A401A601EE07B685B68052B0ED1A14BC6
:1017C0001A68A04B8021C9020A431A609D4B1A680F
:1017D0009C4B802149020A431A600BE0994B1A681E
:1017E000984B99490A401A60964B1A68954B97494D
:1017F0000A401A607B685B68002B14D0FFF776F90B
:101800000300BB6108E0FFF771F90200BB69D31A5E
:10181000642B01D903238AE28A4B1A6880239B0236
:101820001340F0D015E0FFF761F90300BB6108E059
:10183000FFF75CF90200BB69D31A642B01D90323BB
:1018400075E2804B1A6880239B021340F0D100E0C0
:10185000C0467B681B680222134000D169E0794BC7
:101860005B680C2213400BD0764B5B680C22134054
:10187000082B1CD1734B5A6880235B02134016D18E
:10188000704B1B680222134005D07B68DB68012B7C
:1018900001D001234BE26B4B1B68F82293431900E4
:1018A0007B681B69DA00674B0A431A6041E07B687A
:1018B000DB68002B24D0634B1A68624B01210A437A
:1018C0001A60FFF713F90300BB6108E0FFF70EF998
:1018D0000200BB69D31A022B01D9032327E2594B1B
:1018E0001B6802221340F1D0564B1B68F822934329
:1018F00019007B681B69DA00524B0A431A6018E032
:10190000504B1A684F4B01218A431A60FFF7EEF8DB
:101910000300BB6108E0FFF7E9F80200BB69D31AD6
:10192000022B01D9032302E2464B1B68022213401B
:10193000F1D17B681B680822134036D07B68DB69D5
:10194000002B19D03F4B5A6A3E4B01210A435A6281
:10195000FFF7CCF80300BB6108E0FFF7C7F802000F
:10196000BB69D31A022B01D90323E0E1354B5B6A33
:1019700002221340F1D018E0324B5A6A314B012158
:101980008A435A62FFF7B2F80300BB6108E0FFF731
:10199000ADF80200BB69D31A022B01D90323C6E1BB
:1019A000284B5B6A02221340F1D17B681B6804223A
:1019B000134000D1B4E01F203B1800221A70214BC5
:1019C000DA6980235B05134010D11E4BDA691D4B89
:1019D000802149050A43DA611A4BDA6980235B05E5
:1019E0001340FB60FB683B1801221A70184B1A6801
:1019F00080235B0013401AD1154B1A68144B8021C9
:101A000049000A431A60FFF771F80300BB6108E060
:101A1000FFF76CF80200BB69D31A642B01D90323CA
:101A200085E10B4B1A6880235B001340F0D07B6884
:101A30009B68012B0ED1034B1A6A024B01210A430A
:101A40001A6235E000100240FFFFFEFFFFFFFBFFC0
:101A5000007000407B689B68002B0CD1B64B1A6A63
:101A6000B54B01218A431A62B34B1A6AB24B042167
:101A70008A431A621CE07B689B68052B0CD1AE4B35
:101A80001A6AAD4B04210A431A62AB4B1A6AAA4B7D
:101A900001210A431A620BE0A74B1A6AA64B0121E7
:101AA0008A431A62A44B1A6AA34B04218A431A621E
:101AB0007B689B68002B14D0FFF718F80300BB610C
:101AC00009E0FFF713F80200BB69D31A9B4A93425F
:101AD00001D903232BE1984B1B6A02221340F0D05B
:101AE00013E0FFF703F80300BB6109E0FEF7FEFF18
:101AF0000200BB69D31A914A934201D9032316E12C
:101B00008D4B1B6A02221340F0D11F23FB181B7858
:101B1000012B05D1884BDA69874B89490A40DA6184
:101B20007B681B681022134063D07B685B69012BC4
:101B30002AD1814B5A6B804B04210A435A637E4B56
:101B40005A6B7D4B01210A435A63FEF7CFFF030016
:101B5000BB6108E0FEF7CAFF0200BB69D31A022B83
:101B600001D90323E3E0744B5B6B02221340F1D0F5
:101B7000714B5B6BF822934319007B689B69DA0019
:101B80006D4B0A435A6334E07B685B69053311D1BE
:101B9000694B5A6B684B04218A435A63664B5B6BF3
:101BA000F822934319007B689B69DA00624B0A4371
:101BB0005A631EE0604B5A6B5F4B04210A435A6321
:101BC0005D4B5A6B5C4B01218A435A63FEF78EFFD3
:101BD0000300BB6108E0FEF789FF0200BB69D31A6E
:101BE000022B01D90323A2E0534B5B6B022213406B
:101BF000F1D17B681B6A002B00D197E04E4B5B68EC
:101C00000C221340082B00D16BE07B681B6A022B6F
:101C10004CD1494B1A68484B4A490A401A60FEF7B2
:101C200065FF0300BB6108E0FEF760FF0200BB69CF
:101C3000D31A022B01D9032379E03F4B1A68802382
:101C40009B041340F0D13C4BDB6A0F2293431900F5
:101C50007B68DA6A384B0A43DA62374B5B683A4A88
:101C6000134019007B689A6A7B685B6A1A43324B9F
:101C70000A435A60304B1A682F4B802149040A43AB
:101C80001A60FEF733FF0300BB6108E0FEF72EFF8A
:101C90000200BB69D31A022B01D9032347E0264B6C
:101CA0001A6880239B041340F0D03FE0224B1A684F
:101CB000214B24490A401A60FEF718FF0300BB615C
:101CC00008E0FEF713FF0200BB69D31A022B01D90B
:101CD00003232CE0184B1A6880239B041340F0D197
:101CE00024E07B681B6A012B01D101231FE0124B0A
:101CF0005B687B61104BDB6A3B617A6980235B0226
:101D00001A407B685B6A9A420ED13B690F221A40E7
:101D10007B68DB6A9A4207D17A69F0239B031A40F9
:101D20007B689B6A9A4201D0012300E000231800DF
:101D3000BD4608B080BDC0460010024088130000B8
:101D4000FFFFFFEFFFFFFFFEFFFFC2FF80B584B084
:101D500000AF786039607B68002B01D10123B3E0CC
:101D60005B4B1B68012213403A689A4211D9584BC9
:101D70001B68012293431900554B3A680A431A60C5
:101D8000534B1B68012213403A689A4201D0012349
:101D90009AE07B681B680222134015D07B681B68A1
:101DA0000422134006D04B4B5A684A4BE021C9002D
:101DB0000A435A60474B5B68F022934319007B68E3
:101DC0009A68444B0A435A607B681B68012213409F
:101DD00040D07B685B68012B07D13E4B1A6880239B
:101DE0009B02134014D101236EE07B685B68022BD9
:101DF00007D1384B1A6880239B04134008D1012374
:101E000062E0344B1B680222134001D101235BE0E6
:101E1000304B5B680322934319007B685A682D4B53
:101E20000A435A60FEF762FE0300FB6009E0FEF71A
:101E30005DFE0200FB68D31A274A934201D90323AF
:101E400042E0244B5B680C221A407B685B689B0075
:101E50009A42ECD11E4B1B68012213403A689A4209
:101E600011D21B4B1B68012293431900184B3A688F
:101E70000A431A60164B1B68012213403A689A42C3
:101E800001D0012320E07B681B680422134009D0A5
:101E9000104B5B68114A134019007B68DA680D4BE0
:101EA0000A435A6000F020F801000A4B5B681B09E6
:101EB0000F2213400A4AD35C0A00DA40094B1A6029
:101EC0000320FEF7CDFD00231800BD4604B080BD01
:101ED000002002400010024088130000FFF8FFFFBE
:101EE000583E0008DC00002080B586B000AF00231B
:101EF000FB600023BB6000237B6100237B60002329
:101F00003B61204B5B68FB60FB680C221340042B99
:101F100002D0082B03D02CE01B4B3B612CE0FB686C
:101F20009B0C0F221340194AD35C7B60154BDB6A74
:101F30000F221340164AD35CBB60FA6880235B0211
:101F4000134009D0B9681048FEF7F0F803001A00F2
:101F50007B6853437B6109E079680A005201521A99
:101F600093019B1ADB005B181B027B617B693B6161
:101F700002E0054B3B61C0463B691800BD4606B018
:101F800080BDC0460010024000127A00703E00087A
:101F9000803E000880B500AF024B1B681800BD46AC
:101FA00080BDC046DC00002080B500AFFFF7F2FF27
:101FB0000100064B5B681B0A07221340044AD35CEE
:101FC000D9400B001800BD4680BDC046001002403D
:101FD000683E000880B586B000AF786000233B61A2
:101FE0000023FB607B681A6880235B02134000D1EA
:101FF0008EE017203B1800221A70574BDA698023B5
:102000005B05134010D1544BDA69534B80214905CD
:102010000A43DA61504BDA6980235B051340BB60E9
:10202000BB683B1801221A704C4B1A6880235B0076
:1020300013401AD1494B1A68484B802149000A4382
:102040001A60FEF753FD03003B6108E0FEF74EFD0A
:1020500002003B69D31A642B01D9032377E03F4B7D
:102060001A6880235B001340F0D03B4B1A6AC023F0
:102070009B001340FB60FB68002B34D07B685A68E0
:10208000C0239B001340FA689A422CD0324B1B6A43
:10209000334A1340FB60304B1A6A2F4B80214902B0
:1020A0000A431A622C4B1A6A2B4B2E490A401A62B9
:1020B000294BFA681A62FB680122134013D0FEF71D
:1020C00015FD03003B6109E0FEF710FD02003B69CE
:1020D000D31A254A934201D9032338E01E4B1B6AC9
:1020E00002221340F0D01C4B1B6A1D4A13401900FA
:1020F0007B685A68184B0A431A621723FB181B782F
:10210000012B05D1144BDA69134B18490A40DA61E7
:102110007B681B680122134009D00F4B1B6B032205
:10212000934319007B689A680B4B0A431A637B68D8
:102130001B682022134009D0074B1B6B10229343CE
:1021400019007B68DA68044B0A431A6300231800FD
:10215000BD4606B080BDC046001002400070004081
:10216000FFFCFFFFFFFFFEFF88130000FFFFFFEFF4
:1021700080B584B000AF78607B68002B01D101236B
:10218000A8E07B685B6A002B09D17B685A688223D0
:102190005B009A4209D07B680022DA6105E07B6827
:1021A00000221A617B6800225A617B6800229A62D1
:1021B0007B685D229B5CDBB2002B07D17B685C22D5
:1021C000002199547B681800FEF7E6FA7B685D22CF
:1021D000022199547B681B681A687B681B68402140
:1021E0008A431A607B68DA68E023DB009A4202D9EE
:1021F0000023FB6002E080235B01FB607B68DA6800
:10220000F0231B019A4208D07B68DA68E023DB00E8
:102210009A4202D07B6800229A627B685A688223C5
:102220005B001A407B68996884231B020B401A43A9
:102230007B681B6902210B401A437B685B690121A3
:102240000B401A437B68996980239B000B401A431B
:102250007B68DB6938210B401A437B681B6A80214D
:102260000B401A4311007B689A6A80239B011A4035
:102270007B681B680A431A607B689B691B0C0422FD
:102280001A407B685B6A10210B401A437B685B6BCA
:1022900008210B401A437B68D968F0231B010B40CF
:1022A0001A431100FA6880235B011A407B681B689F
:1022B0000A435A607B681B68DA697B681B680749B8
:1022C0000A40DA617B6800221A667B685D22012180
:1022D000995400231800BD4604B080BDFFF7FFFFEE
:1022E00080B582B000AF78607B68002B01D10123FC
:1022F00044E07B68DB6F002B07D17B6878220021EC
:1023000099547B681800FEF793FA7B682422DA67F9
:102310007B681B681A687B681B6801218A431A6006
:102320007B685B6A002B03D07B68180000F07EFAA4
:102330007B68180000F03AF90300012B01D101235A
:102340001CE07B681B685A687B681B680D490A4063
:102350005A607B681B689A687B681B6808218A43FF
:102360009A607B681B681A687B681B6801210A43B6
:102370001A607B68180000F00DFB03001800BD46D2
:1023800002B080BDFFF7FFFF80B58AB002AFF860F2
:10239000B9603B60BB1D1A80FB68DB6F202B00D04F
:1023A0008CE0BB68002B03D0BB1D1B88002B01D128
:1023B000012384E0FB689A6880235B019A4209D17B
:1023C000FB681B69002B05D1BB680122134001D0BB
:1023D000012374E0FB68842200219950FB682122CC
:1023E000DA67FEF783FB03007B61FB68BA1D5021AF
:1023F00012885A52FB68BA1D522112885A52FB6841
:102400009A6880235B019A4208D1FB681B69002B04
:1024100004D10023FB61BB68BB6103E0BB68FB61C7
:102420000023BB612FE07A69F8683B6800931300D2
:102430000022802100F056FB031E04D0FB682022FE
:10244000DA6703233BE0FB69002B0BD1BB691A88D9
:10245000FB681B68D205D20D92B21A85BB690233A4
:10246000BB6107E0FB691A78FB681B681A85FB698A
:102470000133FB61FB6852229B5A9BB2013B99B22C
:10248000FB6852229952FB6852229B5A9BB2002B46
:10249000C9D17A69F8683B68009313000022402193
:1024A00000F020FB031E04D0FB682022DA67032320
:1024B00005E0FB682022DA67002300E00223180011
:1024C000BD4608B080BD80B588B000AFF860B96087
:1024D000BB1D1A80FB6880229B58202B45D1BB680E
:1024E000002B03D0BB1D1B88002B01D101233DE035
:1024F000FB689A6880235B019A4209D1FB681B69DB
:10250000002B05D1BB680122134001D001232DE02F
:10251000FB6800221A66FB681B685A6880231B044C
:10252000134019D0EFF310833B613B69FB6101233A
:102530007B617B6983F31088C046FB681B681A685F
:10254000FB681B688021C9040A431A60FB69BB61F0
:10255000BB6983F31088C046BB1D1A88B968FB6845
:10256000180000F02FFB030000E002231800BD4616
:1025700008B080BD80B582B000AF7860C046BD466F
:1025800002B080BD80B582B000AF7860C046BD4665
:1025900002B080BD80B582B000AF78600A00BB1C7D
:1025A0001A80C046BD4602B080BD000080B588B02C
:1025B00000AF78601E23FB1800221A707B689A68AF
:1025C0007B681B691A437B685B691A437B68DB691C
:1025D00013437B617B681B681B688D4A134019009D
:1025E0007B681B687A690A431A607B681B685B68B2
:1025F000884A134019007B68DA687B681B680A43C5
:102600005A607B689B697B617B681B6A7A691343AC
:102610007B617B681B689B687F4A134019007B685D
:102620001B687A690A439A607B681B687B4A9342FD
:1026300027D17B4B1B6B03221340032B0DD01BD8E0
:10264000022B14D018D8002B02D0012B0AD013E093
:102650001F23FB1800221A7021E01F23FB180222FF
:102660001A701CE01F23FB1804221A7017E01F23A6
:10267000FB1808221A7012E01F23FB1810221A7090
:102680000DE07B681B68674A934204D11F23FB1847
:1026900000221A7003E01F23FB1810221A707B68B7
:1026A000DA6980231B029A425CD11F23FB181B7836
:1026B000082B15D018DC042B0DD015DC002B02D014
:1026C000022B05D010E0FFF76FFC0300BB6112E0A6
:1026D000554BBB610FE0FFF707FC0300BB610AE04D
:1026E00080231B02BB6106E00023BB611E23FB1895
:1026F00001221A70C046BB69002B00D17AE0BB6989
:102700005A007B685B685B08D2187B685B681900BD
:102710001000FDF70BFD03003B613B690F2B1CD93B
:102720003A6980235B029A4217D23B699AB20E2023
:102730003B180F218A431A803B695B089BB2072232
:10274000134099B23B183A1812880A431A807B68E2
:102750001B683A181288DA604CE01E23FB1801222D
:102760001A7047E01F23FB181B78082B15D018DCC4
:10277000042B0DD015DC002B02D0022B05D010E06D
:10278000FFF712FC0300BB6112E0274BBB610FE0B7
:10279000FFF7AAFB0300BB610AE080231B02BB61B9
:1027A00006E00023BB611E23FB1801221A70C046FD
:1027B000BB69002B1ED07B685B685A08BB69D218C6
:1027C0007B685B6819001000FDF7B0FC03003B61FB
:1027D0003B690F2B0AD93A6980235B029A4205D2E2
:1027E0003B699AB27B681B68DA6003E01E23FB1822
:1027F00001221A707B6800229A667B680022DA66E2
:102800001E23FB181B781800BD4608B080BDC046CB
:10281000F369FFFFFFCFFFFFFFF4FFFF0038014028
:10282000001002400044004000127A0080B582B0DF
:1028300000AF78607B685B6A082213400BD07B682E
:102840001B685B684A4A134019007B685A6B7B68B7
:102850001B680A435A607B685B6A012213400BD0F5
:102860007B681B685B68434A134019007B689A6A5F
:102870007B681B680A435A607B685B6A02221340CC
:102880000BD07B681B685B683B4A134019007B6870
:10289000DA6A7B681B680A435A607B685B6A0422B9
:1028A00013400BD07B681B685B68344A13401900E7
:1028B0007B681A6B7B681B680A435A607B685B6A9B
:1028C000102213400BD07B681B689B682C4A134076
:1028D00019007B689A6B7B681B680A439A607B6867
:1028E0005B6A202213400BD07B681B689B68254ADB
:1028F000134019007B68DA6B7B681B680A439A6097
:102900007B685B6A402213401DD07B681B685B6854
:102910001D4A134019007B681A6C7B681B680A43C8
:102920005A607B681A6C80235B039A420BD17B68E8
:102930001B685B68154A134019007B685A6C7B68FA
:102940001B680A435A607B685B6A802213400BD085
:102950007B681B685B680E4A134019007B689A6CA1
:102960007B681B680A435A60C046BD4602B080BD02
:10297000FF7FFFFFFFFFFDFFFFFFFEFFFFFFFBFFEE
:10298000FFEFFFFFFFDFFFFFFFFFEFFFFFFF9FFFF7
:10299000FFFFF7FF80B592B002AF78607B688422BA
:1029A00000219950FEF7A2F80300FB637B681B68C7
:1029B0001B6808221340082B2CD1FB6B802291034B
:1029C0007868464A0092002200F08CF8031E21D05D
:1029D000EFF310837B627B6ABB630123BB62BB6A3C
:1029E00083F31088C0467B681B681A687B681B6885
:1029F00080218A431A60BB6BFB62FB6A83F31088F9
:102A0000C0467B682022DA677B68782200219954CF
:102A100003235FE07B681B681B6804221340042BC0
:102A200046D1FB6B8022D10378682C4A00920022A9
:102A300000F058F8031E3BD0EFF31083FB60FB68F7
:102A40007B6301233B613B6983F31088C0467B684D
:102A50001B681A687B681B6821490A401A607B6BF7
:102A60007B617B6983F31088C046EFF31083BB6101
:102A7000BB693B630123FB61FB6983F31088C0469C
:102A80007B681B689A687B681B6801218A439A608F
:102A90003B6B3B623B6A83F31088C0467B688022B5
:102AA000202199507B68782200219954032311E05A
:102AB0007B682022DA677B688022202199507B681E
:102AC00000221A667B6800225A667B687822002101
:102AD000995400231800BD4610B080BDFFFFFF01D0
:102AE000DFFEFFFF80B584B000AFF860B9603B60E7
:102AF000FB1D1A7051E0BB6901334ED0FDF7F6FFA4
:102B000002003B68D31ABA699A4202D3BB69002B10
:102B100001D1032351E0FB681B681B6804221340AA
:102B20003BD0BB68802B38D0BB68402B35D0FB68CE
:102B30001B68DB6908221340082B11D1FB681B6856
:102B400008221A62FB68180000F000F9FB68842272
:102B500008219950FB6878220021995401232CE028
:102B6000FB681B68DA6980231B011A4080231B0164
:102B70009A4212D1FB681B68802212011A62FB681C
:102B8000180000F0E3F8FB68842220219950FB68CC
:102B900078220021995403230FE0FB681B68DB694E
:102BA000BA681340BA68D31A5A425341DBB21A00CA
:102BB000FB1D1B789A429ED000231800BD4604B02E
:102BC00080BD000080B590B000AFF860B960BB1D5B
:102BD0001A80FB68BA685A65FB68BA1D58211288CA
:102BE0005A52FB68842200219950FB6880222221DE
:102BF0009950FB685B6F002B28D0FB685B6F3E4AE7
:102C00009A62FB685B6F3D4ADA62FB685B6F3C4A25
:102C10001A63FB685B6F00225A63FB68586FFB689E
:102C20001B6824331900FB685B6D1A00BB1D1B88F1
:102C3000FEF7B0F8031E09D0FB68842210219950DA
:102C4000FB68802220219950012350E0FB681B691A
:102C5000002B19D0EFF31083BB62BB6AFB63012327
:102C6000FB62FB6A83F31088C046FB681B681A6826
:102C7000FB681B68802149000A431A60FB6B3B63B9
:102C80003B6B83F31088C046EFF310833B613B69D5
:102C9000BB6301237B617B6983F31088C046FB68BB
:102CA0001B689A68FB681B6801210A439A60BB6B2A
:102CB000BB61BB6983F31088C046EFF31083FB61EF
:102CC000FB697B6301233B623B6A83F31088C04648
:102CD000FB681B689A68FB681B6840210A439A607E
:102CE0007B6B7B627B6A83F31088C04600231800ED
:102CF000BD4610B080BDC046152E0008412F00080B
:102D0000832F000880B586B000AF7860EFF31083A2
:102D1000BB60BB687B610123FB60FB6883F31088A9
:102D2000C0467B681B681A687B681B68C0218A43A1
:102D30001A607B693B613B6983F31088C0467B68FE
:102D40002022DA67C046BD4606B080BD80B58EB091
:102D500000AF7860EFF310837B617B697B630123B5
:102D6000BB61BB6983F31088C0467B681B681A6827
:102D70007B681B6826490A401A607B6BFB61FB6914
:102D800083F31088C046EFF310833B623B6A3B63DA
:102D900001237B627B6A83F31088C0467B681B68D3
:102DA0009A687B681B6801218A439A603B6BBB620F
:102DB000BB6A83F31088C0467B681B6E012B18D159
:102DC000EFF31083BB60BB68FB620123FB60FB6811
:102DD00083F31088C0467B681B681A687B681B6891
:102DE00010218A431A60FB6A3B613B6983F31088B8
:102DF000C0467B688022202199507B6800221A6699
:102E00007B6800229A66C046BD460EB080BDC046B3
:102E1000DFFEFFFF80B594B000AF78607B685B6A2F
:102E2000FB647B689B69202B6FD0FB6C5A220021CE
:102E30009952EFF31083BB61BB69BB640123FB6153
:102E4000FB6983F31088C046FB6C1B681A68FB6C37
:102E50001B683A490A401A60BB6C3B623B6A83F3C9
:102E60001088C046EFF310837B627B6A7B6401238A
:102E7000BB62BB6A83F31088C046FB6C1B689A6810
:102E8000FB6C1B6801218A439A607B6CFB62FB6AC6
:102E900083F31088C046EFF310833B633B6B3B64C6
:102EA00001237B637B6B83F31088C046FB6C1B683C
:102EB0009A68FB6C1B6840218A439A603B6CBB6339
:102EC000BB6B83F31088C046FB6C80222021995095
:102ED000FB6C1B6E012B18D1EFF31083FB60FB68BA
:102EE000FB6301233B613B6983F31088C046FB6CA5
:102EF0001B681A68FB6C1B6810218A431A60FB6B05
:102F00007B617B6983F31088C046FB6C00225A66A4
:102F1000FB6C1B6E012B08D1FB6C58229A5AFB6C80
:102F200011001800FFF736FB03E0FB6C1800FDF7FB
:102F300091FBC046BD4614B080BDC046FFFEFFFFFA
:102F400080B584B000AF78607B685B6AFB60FB682B
:102F500001225A66FB681B6E012B0AD1FB685822BE
:102F60009B5A5B089AB2FB6811001800FFF712FB2E
:102F700003E0FB681800FFF7FDFAC046BD4604B049
:102F800080BD80B586B000AF78607B685B6A7B618E
:102F90007B69DB6F3B617B6980229B58FB607B69AF
:102FA0001B689B6880221340802B0AD13B69212B30
:102FB00007D17B695222002199527B691800FFF7E3
:102FC000A1FE7B691B689B6840221340402B0AD1FD
:102FD000FB68222B07D17B695A22002199527B6919
:102FE0001800FFF7B3FE7B6984229B5810221A4316
:102FF0007B6984215A507B691800FFF7C3FAC046E9
:10300000BD4606B080BD000080B582B000AF134B56
:1030100000221A60124BA02212055A60FB1D0022EA
:103020001A7012E00F4AFB1D1B7820339B00002111
:1030300099500C4AFB1D1B7860339B00002199506E
:10304000FB1D1A78FB1D01321A70FB1D1B78002B2B
:10305000E8D0C046C046BD4602B080BD10E000E0EA
:1030600000ED00E000E100E080B582B000AF7860E4
:103070007B68054A10001900C0231A0000F046FAC8
:10308000C046BD4602B080BD0000002080B584B0BF
:1030900000AF78607B68FB60FB681B68BB60BB6847
:1030A00083F30888C046FB685B689847C046BD4606
:1030B00004B080BD0FB490B597B000AF08243B19A1
:1030C000180050231A00002100F0ECF964230822B4
:1030D0009B18DB197B607A68B96E3B19180000F009
:1030E000D5F93B191800FDF70FF803009AB2012338
:1030F0005B4239190448FFF747F9C046BD4617B08F
:1031000090BC08BC04B01847C001002080B582B054
:1031100000AF144B1B6804331B687B607B683B600B
:10312000114B1800FFF7C6FF3A68104B110018004A
:10313000FFF7C0FF0E4B1800FDF7E2FCFFF764FF3E
:10314000084B1B681800FFF78FFF0A4B03221A6019
:10315000044B1B681800FFF799FFC046BD4602B03C
:1031600080BDC046E8000020B43D0008E03D0008F6
:10317000B80B00000000014080B584B000AF3B1DDB
:1031800018000C231A00002100F08CF9FDF7E8FF6D
:103190003B1D00221A600D4B1A683B1D5A603B1DF7
:1031A00023229A6000233B603A003B1D1100180067
:1031B000FEF796F8FDF7FAFF3A68054B1100180084
:1031C000FFF778FFC046BD4604B080BDE800002090
:1031D000103E0008B0B584B000AF786039600023BD
:1031E000BB60FDF7BDFF0E23FB1800221A8037E0FD
:1031F0000E203B181B887A68D3181B7819003B18DF
:103200001B8801337A68D3181B781B020A001A4303
:103210003B181B8802337968CB181B781B041A43B0
:103220003B181B8803337968CB181B781B061343A4
:10323000BB60BB681C0000231D00396822002B0006
:103240000220FDF7F7FE031E01D0FDF77BFA3B6875
:1032500004333B600E22BB18BA18128804321A805D
:103260000E23FB181B88FF2BC2D9FDF79FFFC0461A
:10327000BD4604B0B0BD80B582B000AF0200FB1DFA
:103280001A70FB1D1B78032B08D00DDC022B0ED00F
:103290000ADC002B0DD0012B03D005E0FFF736FF31
:1032A00008E0FFF769FF05E0FDF74CFA02E0C046D1
:1032B00000E0C046C046BD4602B080BD80B586B0C5
:1032C00000AF78601723FB1800221A700C23FB183C
:1032D00007221A702F4B5B78CC2B03D17B680E33FF
:1032E0003B6105E02B4B5B78DD2B01D1FDF72AFA22
:1032F0000E23FB1800221A803BE00E23FB181B88CC
:103300003A69D31819781722BB18BA1812784A40AC
:103310001A700D23FB1800221A701FE017217B186A
:103320001B785BB2002B0DDA7B181B785BB2DB18C5
:103330005AB20C23FB181B785BB253405AB27B186D
:103340001A7005E01723FA18FB181B78DB181370A6
:103350000D217B181A787B1801321A700D23FB1887
:103360001B78072BDAD90E217B181A887B180132BB
:103370001A800E23FB181A8879688C235B00CB58BF
:103380009A42BAD31723FB181B781800BD4606B023
:1033900080BDC0468C02002080B584B000AF78604C
:1033A0000E23FB18012252421A800823FB182B4AD5
:1033B0001A800C23FB1800221A8040E00C23FB1813
:1033C0001B887A68D318DB7C1BB21B021AB20E2151
:1033D0007B1800201B5E53401AB27B181A800B2307
:1033E000FB1800221A701FE00E217B1800229B5E42
:1033F000002B0DDA7B1800229B5EDB181AB2082323
:10340000FB1800201B5E53401AB27B181A8005E09F
:103410000E23FA18FB181B88DB1813800B217B186E
:103420001A787B1801321A700B23FB181B78072BB4
:10343000DAD90C217B181A887B1801321A800C23E8
:10344000FB181A8881235B009A42B7D90E23FB1818
:103450001B881800BD4604B080BDC0462110000086
:1034600010B500249AB00091049106491994059171
:10347000029105490391694600F0AEF9009B1C706A
:103480001AB010BDFFFFFF7F0802FFFF10B5044C0C
:1034900013000A0001002068FFF7E2FF10BDC046DC
:1034A000EC00002003008218934200D1704719708D
:1034B0000133F9E7014B18687047C046EC00002063
:1034C00070B500260C4C0D4D641BA410A64209D10A
:1034D000002600F063FC0A4C0A4D641BA410A642AF
:1034E00005D170BDB300EB5898470136EEE7B30045
:1034F000EB5898470136F2E7C43E0008C43E000886
:10350000C83E0008C43E000870477047002310B54D
:103510009A4200D110BDCC5CC4540133F8E70000DE
:1035200070B505000C1E10D0043C2368002B00DA97
:10353000E418280000F0E0F81D4A1368002B05D1BC
:1035400063601460280000F0DFF870BDA34208D962
:10355000206821188B42F3D119685B680918216033
:10356000EEE71A005B68002B01D0A342F9D911687D
:103570005018A0420BD120680918501811608342DE
:10358000E0D118685B68411811605360DAE7A04227
:1035900002D90C232B60D5E7206821188B4203D178
:1035A00019685B680918216063605460CAE7C04607
:1035B0004407002070B50F4E0D003168040000294B
:1035C00002D100F095FB30602900200000F090FB54
:1035D000431C03D101256D42280070BD0323C51C87
:1035E0009D43A842F8D0291A200000F081FB013049
:1035F000F2D1EFE740070020F7B50322CB1C93433D
:10360000083305001F000C2B34D20C27B94233D8E5
:10361000280000F071F8374E33681C00002C2FD1C1
:1036200039002800FFF7C6FF0400431C5FD134684F
:103630000094009B002B4AD1002C52D02368280014
:10364000E3180099019300F053FB019B834248D19A
:1036500023682800FF1A3900FFF7ACFF013040D083
:103660002368DB19236033685A68002A33D1009B32
:10367000336019E0002BC9DA0C232B600020FEBD5B
:103680002168C91B20D40B290AD9E2192760A3425B
:1036900004D1326063681160536005E05A60F9E755
:1036A0006268A3420ED13260280000F02DF820009D
:1036B00007220B30231D9043C21A9842DFD01B1AF9
:1036C000A350DCE75A60EFE723006468A6E7009C9C
:1036D00063680093ADE71A005B68A342FBD1002347
:1036E000DAE70C2328002B6000F00EF8C6E707602D
:1036F000DAE7C0464407002010B50248FFF704FF90
:1037000010BDC0463C07002010B50248FFF7FDFE83
:1037100010BDC0463C070020F0B58E6885B01F0084
:103720000C000B6802900392BE4230D80C21625EFE
:103730009021C9000A4228D0032021695B1A019315
:10374000636943430198DD0FED187B1C1B186D1056
:10375000AB4200D91D00520528D529000298FFF779
:103760004BFF061E2CD0019A2169FFF7CFFEA289DC
:10377000184B1A4080231343A381019B2661F6183E
:1037800026603E006561ED1AA560BE4200D93E008C
:1037900032000399206800F099FA0020A3689B1B6F
:1037A000A36023689B19236005B0F0BD2A0002982E
:1037B00000F0BBFA061EE0D121690298FFF7B0FEC7
:1037C0000C230120029A40421360A2893433134330
:1037D000A381E9E77FFBFFFFF0B5A1B003901D00D7
:1037E0008B890F0016001B0611D50B69002B0ED11B
:1037F0004021FFF701FF38603861002805D10C2314
:10380000039A136001204042CFE040237B610023F4
:1038100008AC6361203363761033A37607953500D7
:103820002B78002B01D0252B48D1AB1B0593B5423B
:103830000BD0320039000398FFF76EFF013000D142
:10384000AEE06369059A9B1863612B78002B00D169
:10385000A6E0012200235242626004A954325218A9
:103860006E1C2360E360A3601370A365544B0522B4
:1038700018003178059300F04DFA751C00281FD10F
:103880002268D30604D5532304A95B18202119709C
:10389000130704D5532304A95B182B21197033781F
:1038A0002A2B16D0350000210A20E3682A786E1CE6
:1038B000303A092A50D9002911D117E00135AFE774
:1038C000059B2268C01A0123834013432E00236006
:1038D000CCE7079B191D1B680791002B01DB0B939D
:1038E00004E05B42E3600223134323602B782E2B1A
:1038F0000CD16B782A2B34D1079B02351A1D1B681B
:103900000792002B01DA01235B4209932D4E03221B
:103910003000297800F0FEF9002806D04023801BF3
:103920008340226801351343236029780622264804
:103930006E1C217600F0EEF9002838D0234B002BC6
:1039400022D10722079B0733934308330793636908
:10395000049A9B18636162E74343350001219B1879
:10396000A4E700230A201900013563602A786E1C41
:10397000303A092A03D9002BC8D00991C6E7414340
:10398000350001238918F1E707AA009221003A00C7
:103990000F4B039800E000BF0490049B0133D6D185
:1039A000BB890D985B0600D52CE721B0F0BD07AAB6
:1039B000009221003A00064B039800F07BF8EBE7F9
:1039C000903E0008963E00089A3E00080000000065
:1039D00019370008F7B5160001938A680B690C00C7
:1039E0000090934200DA13002200336043321278D1
:1039F000002A01D00133336023689B0602D5336867
:103A0000023333602268062315001D401A4227D076
:103A1000230043331B785A1E93412268920630D408
:103A2000220001990098089D4332A847013025D013
:103A30000622236800251340042B05D13368E5686E
:103A4000ED1AEB43DB171D40A3682269934201DDA9
:103A50009B1AED180026B54220D1002010E0013558
:103A6000E36832689B1AAB42D2DD22000123019940
:103A70000098089F1932B8470130F0D10120404228
:103A8000FEBD3020E1184331087021005A1C453139
:103A90000978A218433202331170C1E722000123D2
:103AA00001990098089F1A32B8470130E6D00136D4
:103AB000D1E70000F0B58BB006920A0043320793BD
:103AC000059003920A7E0C00109B782A09D8622A7E
:103AD0000BD8002A00D1BAE07A490491582A00D1C3
:103AE0008EE0250042352A7022E010006338152848
:103AF000F7D8FCF711FB16001F00F6FFF6FFF6FFE4
:103B0000F6FF1F00F6FFF6FFF6FFF6FF9F003600F8
:103B10007E00F6FFF6FFB000F6FF3600F6FFF6FF78
:103B2000820025001A684235111D196013682B7038
:103B300001239EE018680968021D0D060BD5066872
:103B40001A60002E03DA2D23039A764213705D4B20
:103B50000A27049318E006681A604906F1D536B2C0
:103B6000EFE70868196840C9050602D4400600D589
:103B7000B6B21960534B0A2704936F2A00D1023F53
:103B80002300002243331A706368A360002B06DB16
:103B900004212268039D8A43226033430CD0039D95
:103BA00030003900FCF748FB049B013D5B5C2B7047
:103BB000330006009F42F3D9082F09D12368DB07A1
:103BC00006D5626823699A4202DC3023013D2B70DE
:103BD000039B5B1B2361079B210000930598069BB9
:103BE00009AAFFF7F7FE013048D1012040420BB08F
:103BF000F0BD202209680A432260782232490491EC
:103C0000210045310A701968226840C9100602D4A3
:103C1000500600D5B6B21960D30702D5202313434E
:103C20002360002E01D01027AAE7202223689343A7
:103C30002360F8E71A680D68101D49691860136859
:103C40002E0601D5196002E06D06FBD51980002310
:103C5000039D2361BFE71A68111D196015680021D3
:103C60002800626800F056F8002801D0401B606010
:103C7000636823610023039A1370ACE72A00236969
:103C800006990598079DA8470130AED023689B0789
:103C900015D4099BE0689842A9DA1800A7E722002A
:103CA000012306990598079E1932B04701309CD030
:103CB0000135E368099A9B1AAB42F0DCE9E700257D
:103CC000F7E7C046A13E0008B23E000810B58842A2
:103CD00002D98B18984208D300239A4207D0CC5CB3
:103CE000C4540133F9E78B5C8354013AFBD210BD15
:103CF000002370B5064D040008002B60FCF736FE6B
:103D0000431C03D12B68002B00D0236070BDC0463C
:103D100038070020C9B28218904201D100207047B4
:103D200003788B42FBD00130F6E7F7B506000C00B4
:103D30001500002905D11100FFF75EFC04002000EA
:103D4000FEBD002A03D1FFF7EBFB2C00F7E700F0E4
:103D50001CF80700854202D84308AB42EFD3290084
:103D60003000FFF749FC0190002801D1019CE6E7F3
:103D70002A00BD4200D93A0021000198FFF7C6FB96
:103D800021003000FFF7CCFBF0E70B1F1B68181F6A
:103D9000002B01DA0B58C01870470000F8B5C04678
:103DA000F8BC08BC9E467047F8B5C046F8BC08BCD5
:043DB0009E46704774
:103DB400424C5F4442475F4D53473A20426F6F7411
:103DC4006C6F61646572206A756D7020746F207504
:103DD400736572206170700D0A000000424C5F44EC
:103DE40042475F4D53473A204170702072657365B6
:103DF400742068616E646C657220616464723A2038
:103E04002523780D0A0A0A0A000000002323232030
:103E14004572617365642033356B42206170706C48
:103E240069636174696F6E20636F64652070616794
:103E340065732E2050616765206572726F7220630E
:103E44006F64653A2030782530386C58202323235A
:103E54000D0A00000000000000000000010203043D
:103E64000607080900000000010203040203040518
:103E7400060708090A0B0C0D0E0F101001020304AB
:103E840005060708090A0B0C0D0E0F10232D302B05
:103E94002000686C4C006566674546470030313247
:103EA400333435363738394142434445460030319E
:103EB40032333435363738396162636465660000FD
:043EC400E900000809
:043EC800C10000082D
:103ECC00424C5F41434B0D0A0A000000424C5F4ECE
:103EDC0041434B0D0A0A00000060000800127A00F2
:103EEC00040000000100000000600008F000002049
:103EFC00000000000006002068060020D00600200C
:103F0C0000000000000000000000000000000000A5
:103F1C000000000000000000000000000000000095
:103F2C000000000000000000000000000000000085
:0C3F3C0000000000000000000000000079
:04000005080009E501
:00000001FF
